{
  "_format": "hh-sol-artifact-1",
  "contractName": "Pills",
  "sourceName": "contracts/Pills.sol",
  "abi": [
    {
      "inputs": [],
      "stateMutability": "nonpayable",
      "type": "constructor"
    },
    {
      "inputs": [
        {
          "internalType": "address",
          "name": "sender",
          "type": "address"
        },
        {
          "internalType": "uint256",
          "name": "tokenId",
          "type": "uint256"
        },
        {
          "internalType": "address",
          "name": "owner",
          "type": "address"
        }
      ],
      "name": "ERC721IncorrectOwner",
      "type": "error"
    },
    {
      "inputs": [
        {
          "internalType": "address",
          "name": "operator",
          "type": "address"
        },
        {
          "internalType": "uint256",
          "name": "tokenId",
          "type": "uint256"
        }
      ],
      "name": "ERC721InsufficientApproval",
      "type": "error"
    },
    {
      "inputs": [
        {
          "internalType": "address",
          "name": "approver",
          "type": "address"
        }
      ],
      "name": "ERC721InvalidApprover",
      "type": "error"
    },
    {
      "inputs": [
        {
          "internalType": "address",
          "name": "operator",
          "type": "address"
        }
      ],
      "name": "ERC721InvalidOperator",
      "type": "error"
    },
    {
      "inputs": [
        {
          "internalType": "address",
          "name": "owner",
          "type": "address"
        }
      ],
      "name": "ERC721InvalidOwner",
      "type": "error"
    },
    {
      "inputs": [
        {
          "internalType": "address",
          "name": "receiver",
          "type": "address"
        }
      ],
      "name": "ERC721InvalidReceiver",
      "type": "error"
    },
    {
      "inputs": [
        {
          "internalType": "address",
          "name": "sender",
          "type": "address"
        }
      ],
      "name": "ERC721InvalidSender",
      "type": "error"
    },
    {
      "inputs": [
        {
          "internalType": "uint256",
          "name": "tokenId",
          "type": "uint256"
        }
      ],
      "name": "ERC721NonexistentToken",
      "type": "error"
    },
    {
      "anonymous": false,
      "inputs": [
        {
          "indexed": true,
          "internalType": "address",
          "name": "owner",
          "type": "address"
        },
        {
          "indexed": true,
          "internalType": "address",
          "name": "approved",
          "type": "address"
        },
        {
          "indexed": true,
          "internalType": "uint256",
          "name": "tokenId",
          "type": "uint256"
        }
      ],
      "name": "Approval",
      "type": "event"
    },
    {
      "anonymous": false,
      "inputs": [
        {
          "indexed": true,
          "internalType": "address",
          "name": "owner",
          "type": "address"
        },
        {
          "indexed": true,
          "internalType": "address",
          "name": "operator",
          "type": "address"
        },
        {
          "indexed": false,
          "internalType": "bool",
          "name": "approved",
          "type": "bool"
        }
      ],
      "name": "ApprovalForAll",
      "type": "event"
    },
    {
      "anonymous": false,
      "inputs": [
        {
          "indexed": true,
          "internalType": "address",
          "name": "from",
          "type": "address"
        },
        {
          "indexed": true,
          "internalType": "address",
          "name": "to",
          "type": "address"
        },
        {
          "indexed": true,
          "internalType": "uint256",
          "name": "tokenId",
          "type": "uint256"
        }
      ],
      "name": "Transfer",
      "type": "event"
    },
    {
      "inputs": [
        {
          "internalType": "address",
          "name": "to",
          "type": "address"
        },
        {
          "internalType": "uint256",
          "name": "tokenId",
          "type": "uint256"
        }
      ],
      "name": "approve",
      "outputs": [],
      "stateMutability": "nonpayable",
      "type": "function"
    },
    {
      "inputs": [
        {
          "internalType": "address",
          "name": "owner",
          "type": "address"
        }
      ],
      "name": "balanceOf",
      "outputs": [
        {
          "internalType": "uint256",
          "name": "",
          "type": "uint256"
        }
      ],
      "stateMutability": "view",
      "type": "function"
    },
    {
      "inputs": [
        {
          "internalType": "uint256",
          "name": "_tokenId",
          "type": "uint256"
        }
      ],
      "name": "generateFinalSvg",
      "outputs": [
        {
          "internalType": "string",
          "name": "",
          "type": "string"
        }
      ],
      "stateMutability": "view",
      "type": "function"
    },
    {
      "inputs": [
        {
          "internalType": "uint256",
          "name": "tokenId",
          "type": "uint256"
        }
      ],
      "name": "getApproved",
      "outputs": [
        {
          "internalType": "address",
          "name": "",
          "type": "address"
        }
      ],
      "stateMutability": "view",
      "type": "function"
    },
    {
      "inputs": [
        {
          "internalType": "address",
          "name": "owner",
          "type": "address"
        },
        {
          "internalType": "address",
          "name": "operator",
          "type": "address"
        }
      ],
      "name": "isApprovedForAll",
      "outputs": [
        {
          "internalType": "bool",
          "name": "",
          "type": "bool"
        }
      ],
      "stateMutability": "view",
      "type": "function"
    },
    {
      "inputs": [
        {
          "internalType": "uint256",
          "name": "numberOfTokens",
          "type": "uint256"
        }
      ],
      "name": "mintBatch",
      "outputs": [],
      "stateMutability": "payable",
      "type": "function"
    },
    {
      "inputs": [],
      "name": "mintPill",
      "outputs": [],
      "stateMutability": "payable",
      "type": "function"
    },
    {
      "inputs": [],
      "name": "mintPrice",
      "outputs": [
        {
          "internalType": "uint256",
          "name": "",
          "type": "uint256"
        }
      ],
      "stateMutability": "view",
      "type": "function"
    },
    {
      "inputs": [],
      "name": "name",
      "outputs": [
        {
          "internalType": "string",
          "name": "",
          "type": "string"
        }
      ],
      "stateMutability": "view",
      "type": "function"
    },
    {
      "inputs": [
        {
          "internalType": "uint256",
          "name": "tokenId",
          "type": "uint256"
        }
      ],
      "name": "ownerOf",
      "outputs": [
        {
          "internalType": "address",
          "name": "",
          "type": "address"
        }
      ],
      "stateMutability": "view",
      "type": "function"
    },
    {
      "inputs": [
        {
          "internalType": "address",
          "name": "from",
          "type": "address"
        },
        {
          "internalType": "address",
          "name": "to",
          "type": "address"
        },
        {
          "internalType": "uint256",
          "name": "tokenId",
          "type": "uint256"
        }
      ],
      "name": "safeTransferFrom",
      "outputs": [],
      "stateMutability": "nonpayable",
      "type": "function"
    },
    {
      "inputs": [
        {
          "internalType": "address",
          "name": "from",
          "type": "address"
        },
        {
          "internalType": "address",
          "name": "to",
          "type": "address"
        },
        {
          "internalType": "uint256",
          "name": "tokenId",
          "type": "uint256"
        },
        {
          "internalType": "bytes",
          "name": "data",
          "type": "bytes"
        }
      ],
      "name": "safeTransferFrom",
      "outputs": [],
      "stateMutability": "nonpayable",
      "type": "function"
    },
    {
      "inputs": [
        {
          "internalType": "address",
          "name": "operator",
          "type": "address"
        },
        {
          "internalType": "bool",
          "name": "approved",
          "type": "bool"
        }
      ],
      "name": "setApprovalForAll",
      "outputs": [],
      "stateMutability": "nonpayable",
      "type": "function"
    },
    {
      "inputs": [
        {
          "internalType": "bytes4",
          "name": "interfaceId",
          "type": "bytes4"
        }
      ],
      "name": "supportsInterface",
      "outputs": [
        {
          "internalType": "bool",
          "name": "",
          "type": "bool"
        }
      ],
      "stateMutability": "view",
      "type": "function"
    },
    {
      "inputs": [],
      "name": "symbol",
      "outputs": [
        {
          "internalType": "string",
          "name": "",
          "type": "string"
        }
      ],
      "stateMutability": "view",
      "type": "function"
    },
    {
      "inputs": [
        {
          "internalType": "uint256",
          "name": "tokenId",
          "type": "uint256"
        }
      ],
      "name": "tokenURI",
      "outputs": [
        {
          "internalType": "string",
          "name": "",
          "type": "string"
        }
      ],
      "stateMutability": "view",
      "type": "function"
    },
    {
      "inputs": [],
      "name": "totalSupply",
      "outputs": [
        {
          "internalType": "uint256",
          "name": "",
          "type": "uint256"
        }
      ],
      "stateMutability": "view",
      "type": "function"
    },
    {
      "inputs": [
        {
          "internalType": "address",
          "name": "from",
          "type": "address"
        },
        {
          "internalType": "address",
          "name": "to",
          "type": "address"
        },
        {
          "internalType": "uint256",
          "name": "tokenId",
          "type": "uint256"
        }
      ],
      "name": "transferFrom",
      "outputs": [],
      "stateMutability": "nonpayable",
      "type": "function"
    },
    {
      "inputs": [],
      "name": "withdraw",
      "outputs": [],
      "stateMutability": "nonpayable",
      "type": "function"
    }
  ],
  "bytecode": "0x608060405260006007556601c6bf52634000600855604051806080016040528060405180604001604052806040518060400160405280600781526020017f233141414143460000000000000000000000000000000000000000000000000081525081526020016040518060400160405280600781526020017f2331423732434600000000000000000000000000000000000000000000000000815250815250815260200160405180604001604052806040518060400160405280600781526020017f234646323133350000000000000000000000000000000000000000000000000081525081526020016040518060400160405280600781526020017f2346463433323100000000000000000000000000000000000000000000000000815250815250815260200160405180604001604052806040518060400160405280600781526020017f234646453430300000000000000000000000000000000000000000000000000081525081526020016040518060400160405280600781526020017f2346464138303000000000000000000000000000000000000000000000000000815250815250815260200160405180604001604052806040518060400160405280600781526020017f233132453839350000000000000000000000000000000000000000000000000081525081526020016040518060400160405280600781526020017f2332334538313300000000000000000000000000000000000000000000000000815250815250815250600a9060046200023f9291906200042f565b5060405180608001604052806040518060400160405280600781526020017f233939353135370000000000000000000000000000000000000000000000000081525081526020016040518060400160405280600781526020017f233337354636390000000000000000000000000000000000000000000000000081525081526020016040518060400160405280600781526020017f233939393033440000000000000000000000000000000000000000000000000081525081526020016040518060400160405280600781526020017f233336344634350000000000000000000000000000000000000000000000000081525081525060129060046200034792919062000487565b503480156200035557600080fd5b506040518060400160405280600d81526020017f4f6e636861696e2050696c6c73000000000000000000000000000000000000008152506040518060400160405280600381526020017f4f435000000000000000000000000000000000000000000000000000000000008152508160009081620003d3919062000881565b508060019081620003e5919062000881565b50505033600660006101000a81548173ffffffffffffffffffffffffffffffffffffffff021916908373ffffffffffffffffffffffffffffffffffffffff16021790555062000968565b826004600202810192821562000474579160200282015b82811115620004735782518290600262000462929190620004da565b509160200191906002019062000446565b5b5090506200048391906200052d565b5090565b8260048101928215620004c7579160200282015b82811115620004c6578251829081620004b5919062000881565b50916020019190600101906200049b565b5b509050620004d6919062000555565b5090565b82600281019282156200051a579160200282015b828111156200051957825182908162000508919062000881565b5091602001919060010190620004ee565b5b50905062000529919062000555565b5090565b5b808211156200055157600081816200054791906200057d565b506002016200052e565b5090565b5b808211156200057957600081816200056f9190620005a2565b5060010162000556565b5090565b50600081816200058e9190620005a2565b506001016000620005a09190620005a2565b565b508054620005b09062000670565b6000825580601f10620005c45750620005e5565b601f016020900490600052602060002090810190620005e49190620005e8565b5b50565b5b8082111562000603576000816000905550600101620005e9565b5090565b600081519050919050565b7f4e487b7100000000000000000000000000000000000000000000000000000000600052604160045260246000fd5b7f4e487b7100000000000000000000000000000000000000000000000000000000600052602260045260246000fd5b600060028204905060018216806200068957607f821691505b6020821081036200069f576200069e62000641565b5b50919050565b60008190508160005260206000209050919050565b60006020601f8301049050919050565b600082821b905092915050565b600060088302620007097fffffffffffffffffffffffffffffffffffffffffffffffffffffffffffffffff82620006ca565b620007158683620006ca565b95508019841693508086168417925050509392505050565b6000819050919050565b6000819050919050565b6000620007626200075c62000756846200072d565b62000737565b6200072d565b9050919050565b6000819050919050565b6200077e8362000741565b620007966200078d8262000769565b848454620006d7565b825550505050565b600090565b620007ad6200079e565b620007ba81848462000773565b505050565b5b81811015620007e257620007d6600082620007a3565b600181019050620007c0565b5050565b601f8211156200083157620007fb81620006a5565b6200080684620006ba565b8101602085101562000816578190505b6200082e6200082585620006ba565b830182620007bf565b50505b505050565b600082821c905092915050565b6000620008566000198460080262000836565b1980831691505092915050565b600062000871838362000843565b9150826002028217905092915050565b6200088c8262000607565b67ffffffffffffffff811115620008a857620008a762000612565b5b620008b4825462000670565b620008c1828285620007e6565b600060209050601f831160018114620008f95760008415620008e4578287015190505b620008f0858262000863565b86555062000960565b601f1984166200090986620006a5565b60005b8281101562000933578489015182556001820191506020850194506020810190506200090c565b868310156200095357848901516200094f601f89168262000843565b8355505b6001600288020188555050505b505050505050565b6138b080620009786000396000f3fe6080604052600436106101145760003560e01c806342842e0e116100a0578063a22cb46511610064578063a22cb46514610371578063abe231ac1461039a578063b88d4fde146103d7578063c87b56dd14610400578063e985e9c51461043d57610114565b806342842e0e146102785780636352211e146102a15780636817c76c146102de57806370a082311461030957806395d89b411461034657610114565b806318160ddd116100e757806318160ddd146101e757806320e409b4146102125780632173bd7b1461022e57806323b872dd146102385780633ccfd60b1461026157610114565b806301ffc9a71461011957806306fdde0314610156578063081812fc14610181578063095ea7b3146101be575b600080fd5b34801561012557600080fd5b50610140600480360381019061013b9190612271565b61047a565b60405161014d91906122b9565b60405180910390f35b34801561016257600080fd5b5061016b61055c565b6040516101789190612364565b60405180910390f35b34801561018d57600080fd5b506101a860048036038101906101a391906123bc565b6105ee565b6040516101b5919061242a565b60405180910390f35b3480156101ca57600080fd5b506101e560048036038101906101e09190612471565b61060a565b005b3480156101f357600080fd5b506101fc610620565b60405161020991906124c0565b60405180910390f35b61022c600480360381019061022791906123bc565b610626565b005b610236610740565b005b34801561024457600080fd5b5061025f600480360381019061025a91906124db565b610834565b005b34801561026d57600080fd5b50610276610936565b005b34801561028457600080fd5b5061029f600480360381019061029a91906124db565b610a15565b005b3480156102ad57600080fd5b506102c860048036038101906102c391906123bc565b610a35565b6040516102d5919061242a565b60405180910390f35b3480156102ea57600080fd5b506102f3610a47565b60405161030091906124c0565b60405180910390f35b34801561031557600080fd5b50610330600480360381019061032b919061252e565b610a4d565b60405161033d91906124c0565b60405180910390f35b34801561035257600080fd5b5061035b610b07565b6040516103689190612364565b60405180910390f35b34801561037d57600080fd5b5061039860048036038101906103939190612587565b610b99565b005b3480156103a657600080fd5b506103c160048036038101906103bc91906123bc565b610baf565b6040516103ce9190612364565b60405180910390f35b3480156103e357600080fd5b506103fe60048036038101906103f991906126fc565b610cd4565b005b34801561040c57600080fd5b50610427600480360381019061042291906123bc565b610cf1565b6040516104349190612364565b60405180910390f35b34801561044957600080fd5b50610464600480360381019061045f919061277f565b610e2f565b60405161047191906122b9565b60405180910390f35b60007f80ac58cd000000000000000000000000000000000000000000000000000000007bffffffffffffffffffffffffffffffffffffffffffffffffffffffff1916827bffffffffffffffffffffffffffffffffffffffffffffffffffffffff1916148061054557507f5b5e139f000000000000000000000000000000000000000000000000000000007bffffffffffffffffffffffffffffffffffffffffffffffffffffffff1916827bffffffffffffffffffffffffffffffffffffffffffffffffffffffff1916145b80610555575061055482610ec3565b5b9050919050565b60606000805461056b906127ee565b80601f0160208091040260200160405190810160405280929190818152602001828054610597906127ee565b80156105e45780601f106105b9576101008083540402835291602001916105e4565b820191906000526020600020905b8154815290600101906020018083116105c757829003601f168201915b5050505050905090565b60006105f982610f2d565b5061060382610fb5565b9050919050565b61061c8282610617610ff2565b610ffa565b5050565b60075481565b80600854610634919061284e565b341015610676576040517f08c379a000000000000000000000000000000000000000000000000000000000815260040161066d906128dc565b60405180910390fd5b60058160075461068691906128fc565b11156106c7576040517f08c379a00000000000000000000000000000000000000000000000000000000081526004016106be9061297c565b60405180910390fd5b60005b8181101561073c57600060016007546106e391906128fc565b90506106ee81610baf565b60096000838152602001908152602001600020908161070d9190612b48565b50610718338261100c565b60076000815461072790612c1a565b919050819055505080806001019150506106ca565b5050565b600854341015610785576040517f08c379a000000000000000000000000000000000000000000000000000000000815260040161077c906128dc565b60405180910390fd5b6000600160075461079691906128fc565b90506000811180156107a9575060058111155b6107e8576040517f08c379a00000000000000000000000000000000000000000000000000000000081526004016107df90612cae565b60405180910390fd5b6107f181610baf565b6009600083815260200190815260200160002090816108109190612b48565b5061081b338261100c565b60076000815461082a90612c1a565b9190508190555050565b600073ffffffffffffffffffffffffffffffffffffffff168273ffffffffffffffffffffffffffffffffffffffff16036108a65760006040517f64a0ae9200000000000000000000000000000000000000000000000000000000815260040161089d919061242a565b60405180910390fd5b60006108ba83836108b5610ff2565b611105565b90508373ffffffffffffffffffffffffffffffffffffffff168173ffffffffffffffffffffffffffffffffffffffff1614610930578382826040517f64283d7b00000000000000000000000000000000000000000000000000000000815260040161092793929190612cce565b60405180910390fd5b50505050565b600660009054906101000a900473ffffffffffffffffffffffffffffffffffffffff1673ffffffffffffffffffffffffffffffffffffffff163373ffffffffffffffffffffffffffffffffffffffff16146109c6576040517f08c379a00000000000000000000000000000000000000000000000000000000081526004016109bd90612d51565b60405180910390fd5b60004790503373ffffffffffffffffffffffffffffffffffffffff166108fc829081150290604051600060405180830381858888f19350505050158015610a11573d6000803e3d6000fd5b5050565b610a3083838360405180602001604052806000815250610cd4565b505050565b6000610a4082610f2d565b9050919050565b60085481565b60008073ffffffffffffffffffffffffffffffffffffffff168273ffffffffffffffffffffffffffffffffffffffff1603610ac05760006040517f89c62b64000000000000000000000000000000000000000000000000000000008152600401610ab7919061242a565b60405180910390fd5b600360008373ffffffffffffffffffffffffffffffffffffffff1673ffffffffffffffffffffffffffffffffffffffff168152602001908152602001600020549050919050565b606060018054610b16906127ee565b80601f0160208091040260200160405190810160405280929190818152602001828054610b42906127ee565b8015610b8f5780601f10610b6457610100808354040283529160200191610b8f565b820191906000526020600020905b815481529060010190602001808311610b7257829003601f168201915b5050505050905090565b610bab610ba4610ff2565b838361131f565b5050565b60606000610bbc8361148e565b9050600081600460058110610bd457610bd3612d71565b5b602002015182600060058110610bed57610bec612d71565b5b602002015183600260058110610c0657610c05612d71565b5b602002015184600060058110610c1f57610c1e612d71565b5b602002015185600260058110610c3857610c37612d71565b5b602002015186600160058110610c5157610c50612d71565b5b602002015187600360058110610c6a57610c69612d71565b5b602002015188600160058110610c8357610c82612d71565b5b602002015189600360058110610c9c57610c9b612d71565b5b6020020151604051602001610cb99998979695949392919061329c565b60405160208183030381529060405290508092505050919050565b610cdf848484610834565b610ceb848484846118d5565b50505050565b6060600073ffffffffffffffffffffffffffffffffffffffff16610d1483611a8c565b73ffffffffffffffffffffffffffffffffffffffff1603610d3457600080fd5b610e09610d4083611ac9565b610de4600960008681526020019081526020016000208054610d61906127ee565b80601f0160208091040260200160405190810160405280929190818152602001828054610d8d906127ee565b8015610dda5780601f10610daf57610100808354040283529160200191610dda565b820191906000526020600020905b815481529060010190602001808311610dbd57829003601f168201915b5050505050611c51565b604051602001610df59291906134bd565b604051602081830303815290604052611c51565b604051602001610e19919061354e565b6040516020818303038152906040529050919050565b6000600560008473ffffffffffffffffffffffffffffffffffffffff1673ffffffffffffffffffffffffffffffffffffffff16815260200190815260200160002060008373ffffffffffffffffffffffffffffffffffffffff1673ffffffffffffffffffffffffffffffffffffffff16815260200190815260200160002060009054906101000a900460ff16905092915050565b60007f01ffc9a7000000000000000000000000000000000000000000000000000000007bffffffffffffffffffffffffffffffffffffffffffffffffffffffff1916827bffffffffffffffffffffffffffffffffffffffffffffffffffffffff1916149050919050565b600080610f3983611a8c565b9050600073ffffffffffffffffffffffffffffffffffffffff168173ffffffffffffffffffffffffffffffffffffffff1603610fac57826040517f7e273289000000000000000000000000000000000000000000000000000000008152600401610fa391906124c0565b60405180910390fd5b80915050919050565b60006004600083815260200190815260200160002060009054906101000a900473ffffffffffffffffffffffffffffffffffffffff169050919050565b600033905090565b6110078383836001611dc3565b505050565b600073ffffffffffffffffffffffffffffffffffffffff168273ffffffffffffffffffffffffffffffffffffffff160361107e5760006040517f64a0ae92000000000000000000000000000000000000000000000000000000008152600401611075919061242a565b60405180910390fd5b600061108c83836000611105565b9050600073ffffffffffffffffffffffffffffffffffffffff168173ffffffffffffffffffffffffffffffffffffffff16146111005760006040517f73c6ac6e0000000000000000000000000000000000000000000000000000000081526004016110f7919061242a565b60405180910390fd5b505050565b60008061111184611a8c565b9050600073ffffffffffffffffffffffffffffffffffffffff168373ffffffffffffffffffffffffffffffffffffffff161461115357611152818486611f88565b5b600073ffffffffffffffffffffffffffffffffffffffff168173ffffffffffffffffffffffffffffffffffffffff16146111e457611195600085600080611dc3565b6001600360008373ffffffffffffffffffffffffffffffffffffffff1673ffffffffffffffffffffffffffffffffffffffff168152602001908152602001600020600082825403925050819055505b600073ffffffffffffffffffffffffffffffffffffffff168573ffffffffffffffffffffffffffffffffffffffff1614611267576001600360008773ffffffffffffffffffffffffffffffffffffffff1673ffffffffffffffffffffffffffffffffffffffff168152602001908152602001600020600082825401925050819055505b846002600086815260200190815260200160002060006101000a81548173ffffffffffffffffffffffffffffffffffffffff021916908373ffffffffffffffffffffffffffffffffffffffff160217905550838573ffffffffffffffffffffffffffffffffffffffff168273ffffffffffffffffffffffffffffffffffffffff167fddf252ad1be2c89b69c2b068fc378daa952ba7f163c4a11628f55a4df523b3ef60405160405180910390a4809150509392505050565b600073ffffffffffffffffffffffffffffffffffffffff168273ffffffffffffffffffffffffffffffffffffffff160361139057816040517f5b08ba18000000000000000000000000000000000000000000000000000000008152600401611387919061242a565b60405180910390fd5b80600560008573ffffffffffffffffffffffffffffffffffffffff1673ffffffffffffffffffffffffffffffffffffffff16815260200190815260200160002060008473ffffffffffffffffffffffffffffffffffffffff1673ffffffffffffffffffffffffffffffffffffffff16815260200190815260200160002060006101000a81548160ff0219169083151502179055508173ffffffffffffffffffffffffffffffffffffffff168373ffffffffffffffffffffffffffffffffffffffff167f17307eab39ab6107e8899845ad3d59bd9653f200f220920489ca2b5937696c318360405161148191906122b9565b60405180910390a3505050565b6114966121bc565b60006114a18361204c565b90506000816000600581106114b9576114b8612d71565b5b602002015190506000826001600581106114d6576114d5612d71565b5b602002015190506000836002600581106114f3576114f2612d71565b5b602002015190506000846003600581106115105761150f612d71565b5b6020020151905060008560046005811061152d5761152c612d71565b5b602002015190506000600a866004811061154a57611549612d71565b5b60020201600280602002604051908101604052809291906000905b8282101561160857838201805461157b906127ee565b80601f01602080910402602001604051908101604052809291908181526020018280546115a7906127ee565b80156115f45780601f106115c9576101008083540402835291602001916115f4565b820191906000526020600020905b8154815290600101906020018083116115d757829003601f168201915b505050505081526020019060010190611565565b5050505090506000600a866004811061162457611623612d71565b5b60020201600280602002604051908101604052809291906000905b828210156116e2578382018054611655906127ee565b80601f0160208091040260200160405190810160405280929190818152602001828054611681906127ee565b80156116ce5780601f106116a3576101008083540402835291602001916116ce565b820191906000526020600020905b8154815290600101906020018083116116b157829003601f168201915b50505050508152602001906001019061163f565b505050509050600060018514611710578260006002811061170657611705612d71565b5b602002015161172a565b8260016002811061172457611723612d71565b5b60200201515b9050600060018614611754578360016002811061174a57611749612d71565b5b602002015161176e565b8360006002811061176857611767612d71565b5b60200201515b9050600060018614611798578360006002811061178e5761178d612d71565b5b60200201516117b2565b836001600281106117ac576117ab612d71565b5b60200201515b90506000600187146117dc57846001600281106117d2576117d1612d71565b5b60200201516117f6565b846000600281106117f0576117ef612d71565b5b60200201515b9050600060128a6004811061180e5761180d612d71565b5b01805461181a906127ee565b80601f0160208091040260200160405190810160405280929190818152602001828054611846906127ee565b80156118935780601f1061186857610100808354040283529160200191611893565b820191906000526020600020905b81548152906001019060200180831161187657829003601f168201915b505050505090506040518060a00160405280868152602001858152602001848152602001838152602001828152509d5050505050505050505050505050919050565b60008373ffffffffffffffffffffffffffffffffffffffff163b1115611a86578273ffffffffffffffffffffffffffffffffffffffff1663150b7a02611919610ff2565b8685856040518563ffffffff1660e01b815260040161193b94939291906135c5565b6020604051808303816000875af192505050801561197757506040513d601f19601f820116820180604052508101906119749190613626565b60015b6119fb573d80600081146119a7576040519150601f19603f3d011682016040523d82523d6000602084013e6119ac565b606091505b5060008151036119f357836040517f64a0ae920000000000000000000000000000000000000000000000000000000081526004016119ea919061242a565b60405180910390fd5b805181602001fd5b63150b7a0260e01b7bffffffffffffffffffffffffffffffffffffffffffffffffffffffff1916817bffffffffffffffffffffffffffffffffffffffffffffffffffffffff191614611a8457836040517f64a0ae92000000000000000000000000000000000000000000000000000000008152600401611a7b919061242a565b60405180910390fd5b505b50505050565b60006002600083815260200190815260200160002060009054906101000a900473ffffffffffffffffffffffffffffffffffffffff169050919050565b606060008203611b10576040518060400160405280600181526020017f30000000000000000000000000000000000000000000000000000000000000008152509050611c4c565b600082905060005b60008214611b42578080611b2b90612c1a565b915050600a82611b3b9190613682565b9150611b18565b60008167ffffffffffffffff811115611b5e57611b5d6125d1565b5b6040519080825280601f01601f191660200182016040528015611b905781602001600182028036833780820191505090505b50905060008290505b60008614611c4457600181611bae91906136b3565b90506000600a8088611bc09190613682565b611bca919061284e565b87611bd591906136b3565b6030611be191906136f4565b905060008160f81b905080848481518110611bff57611bfe612d71565b5b60200101907effffffffffffffffffffffffffffffffffffffffffffffffffffffffffffff1916908160001a905350600a88611c3b9190613682565b97505050611b99565b819450505050505b919050565b60606000825103611c7357604051806020016040528060008152509050611dbe565b600060405180606001604052806040815260200161383b6040913990506000600360028551611ca291906128fc565b611cac9190613682565b6004611cb8919061284e565b67ffffffffffffffff811115611cd157611cd06125d1565b5b6040519080825280601f01601f191660200182016040528015611d035781602001600182028036833780820191505090505b50905060018201602082018586518701602081018051600082525b82841015611d79576003840193508351603f8160121c168701518653600186019550603f81600c1c168701518653600186019550603f8160061c168701518653600186019550603f8116870151865360018601955050611d1e565b80825260038a510660018114611d965760028114611da957611db1565b603d6001870353603d6002870353611db1565b603d60018703535b5050505050505080925050505b919050565b8080611dfc5750600073ffffffffffffffffffffffffffffffffffffffff168273ffffffffffffffffffffffffffffffffffffffff1614155b15611f30576000611e0c84610f2d565b9050600073ffffffffffffffffffffffffffffffffffffffff168373ffffffffffffffffffffffffffffffffffffffff1614158015611e7757508273ffffffffffffffffffffffffffffffffffffffff168173ffffffffffffffffffffffffffffffffffffffff1614155b8015611e8a5750611e888184610e2f565b155b15611ecc57826040517fa9fbf51f000000000000000000000000000000000000000000000000000000008152600401611ec3919061242a565b60405180910390fd5b8115611f2e57838573ffffffffffffffffffffffffffffffffffffffff168273ffffffffffffffffffffffffffffffffffffffff167f8c5be1e5ebec7d5bd14f71427d1e84f3dd0314c0f7b2291e5b200ac8c7c3b92560405160405180910390a45b505b836004600085815260200190815260200160002060006101000a81548173ffffffffffffffffffffffffffffffffffffffff021916908373ffffffffffffffffffffffffffffffffffffffff16021790555050505050565b611f938383836120fb565b61204757600073ffffffffffffffffffffffffffffffffffffffff168373ffffffffffffffffffffffffffffffffffffffff160361200857806040517f7e273289000000000000000000000000000000000000000000000000000000008152600401611fff91906124c0565b60405180910390fd5b81816040517f177e802f00000000000000000000000000000000000000000000000000000000815260040161203e929190613729565b60405180910390fd5b505050565b6120546121e3565b61205c6121e3565b600080600090505b60058110156120f0574233868360405160200161208494939291906137bb565b6040516020818303038152906040528051906020012060001c9150600381106120b9576002826120b49190613809565b6120c7565b6004826120c69190613809565b5b8382600581106120da576120d9612d71565b5b6020020181815250508080600101915050612064565b508192505050919050565b60008073ffffffffffffffffffffffffffffffffffffffff168373ffffffffffffffffffffffffffffffffffffffff16141580156121b357508273ffffffffffffffffffffffffffffffffffffffff168473ffffffffffffffffffffffffffffffffffffffff16148061217457506121738484610e2f565b5b806121b257508273ffffffffffffffffffffffffffffffffffffffff1661219a83610fb5565b73ffffffffffffffffffffffffffffffffffffffff16145b5b90509392505050565b6040518060a001604052806005905b60608152602001906001900390816121cb5790505090565b6040518060a00160405280600590602082028036833780820191505090505090565b6000604051905090565b600080fd5b600080fd5b60007fffffffff0000000000000000000000000000000000000000000000000000000082169050919050565b61224e81612219565b811461225957600080fd5b50565b60008135905061226b81612245565b92915050565b6000602082840312156122875761228661220f565b5b60006122958482850161225c565b91505092915050565b60008115159050919050565b6122b38161229e565b82525050565b60006020820190506122ce60008301846122aa565b92915050565b600081519050919050565b600082825260208201905092915050565b60005b8381101561230e5780820151818401526020810190506122f3565b60008484015250505050565b6000601f19601f8301169050919050565b6000612336826122d4565b61234081856122df565b93506123508185602086016122f0565b6123598161231a565b840191505092915050565b6000602082019050818103600083015261237e818461232b565b905092915050565b6000819050919050565b61239981612386565b81146123a457600080fd5b50565b6000813590506123b681612390565b92915050565b6000602082840312156123d2576123d161220f565b5b60006123e0848285016123a7565b91505092915050565b600073ffffffffffffffffffffffffffffffffffffffff82169050919050565b6000612414826123e9565b9050919050565b61242481612409565b82525050565b600060208201905061243f600083018461241b565b92915050565b61244e81612409565b811461245957600080fd5b50565b60008135905061246b81612445565b92915050565b600080604083850312156124885761248761220f565b5b60006124968582860161245c565b92505060206124a7858286016123a7565b9150509250929050565b6124ba81612386565b82525050565b60006020820190506124d560008301846124b1565b92915050565b6000806000606084860312156124f4576124f361220f565b5b60006125028682870161245c565b93505060206125138682870161245c565b9250506040612524868287016123a7565b9150509250925092565b6000602082840312156125445761254361220f565b5b60006125528482850161245c565b91505092915050565b6125648161229e565b811461256f57600080fd5b50565b6000813590506125818161255b565b92915050565b6000806040838503121561259e5761259d61220f565b5b60006125ac8582860161245c565b92505060206125bd85828601612572565b9150509250929050565b600080fd5b600080fd5b7f4e487b7100000000000000000000000000000000000000000000000000000000600052604160045260246000fd5b6126098261231a565b810181811067ffffffffffffffff82111715612628576126276125d1565b5b80604052505050565b600061263b612205565b90506126478282612600565b919050565b600067ffffffffffffffff821115612667576126666125d1565b5b6126708261231a565b9050602081019050919050565b82818337600083830152505050565b600061269f61269a8461264c565b612631565b9050828152602081018484840111156126bb576126ba6125cc565b5b6126c684828561267d565b509392505050565b600082601f8301126126e3576126e26125c7565b5b81356126f384826020860161268c565b91505092915050565b600080600080608085870312156127165761271561220f565b5b60006127248782880161245c565b94505060206127358782880161245c565b9350506040612746878288016123a7565b925050606085013567ffffffffffffffff81111561276757612766612214565b5b612773878288016126ce565b91505092959194509250565b600080604083850312156127965761279561220f565b5b60006127a48582860161245c565b92505060206127b58582860161245c565b9150509250929050565b7f4e487b7100000000000000000000000000000000000000000000000000000000600052602260045260246000fd5b6000600282049050600182168061280657607f821691505b602082108103612819576128186127bf565b5b50919050565b7f4e487b7100000000000000000000000000000000000000000000000000000000600052601160045260246000fd5b600061285982612386565b915061286483612386565b925082820261287281612386565b915082820484148315176128895761288861281f565b5b5092915050565b7f4e6f7420656e6f756768204554482073656e7400000000000000000000000000600082015250565b60006128c66013836122df565b91506128d182612890565b602082019050919050565b600060208201905081810360008301526128f5816128b9565b9050919050565b600061290782612386565b915061291283612386565b925082820190508082111561292a5761292961281f565b5b92915050565b7f657863656564696e67206d617820746f74616c20737570706c79000000000000600082015250565b6000612966601a836122df565b915061297182612930565b602082019050919050565b6000602082019050818103600083015261299581612959565b9050919050565b60008190508160005260206000209050919050565b60006020601f8301049050919050565b600082821b905092915050565b6000600883026129fe7fffffffffffffffffffffffffffffffffffffffffffffffffffffffffffffffff826129c1565b612a0886836129c1565b95508019841693508086168417925050509392505050565b6000819050919050565b6000612a45612a40612a3b84612386565b612a20565b612386565b9050919050565b6000819050919050565b612a5f83612a2a565b612a73612a6b82612a4c565b8484546129ce565b825550505050565b600090565b612a88612a7b565b612a93818484612a56565b505050565b5b81811015612ab757612aac600082612a80565b600181019050612a99565b5050565b601f821115612afc57612acd8161299c565b612ad6846129b1565b81016020851015612ae5578190505b612af9612af1856129b1565b830182612a98565b50505b505050565b600082821c905092915050565b6000612b1f60001984600802612b01565b1980831691505092915050565b6000612b388383612b0e565b9150826002028217905092915050565b612b51826122d4565b67ffffffffffffffff811115612b6a57612b696125d1565b5b612b7482546127ee565b612b7f828285612abb565b600060209050601f831160018114612bb25760008415612ba0578287015190505b612baa8582612b2c565b865550612c12565b601f198416612bc08661299c565b60005b82811015612be857848901518255600182019150602085019450602081019050612bc3565b86831015612c055784890151612c01601f891682612b0e565b8355505b6001600288020188555050505b505050505050565b6000612c2582612386565b91507fffffffffffffffffffffffffffffffffffffffffffffffffffffffffffffffff8203612c5757612c5661281f565b5b600182019050919050565b7f546f6b656e20494420696e76616c696400000000000000000000000000000000600082015250565b6000612c986010836122df565b9150612ca382612c62565b602082019050919050565b60006020820190508181036000830152612cc781612c8b565b9050919050565b6000606082019050612ce3600083018661241b565b612cf060208301856124b1565b612cfd604083018461241b565b949350505050565b7f6f6e6c79206f776e657200000000000000000000000000000000000000000000600082015250565b6000612d3b600a836122df565b9150612d4682612d05565b602082019050919050565b60006020820190508181036000830152612d6a81612d2e565b9050919050565b7f4e487b7100000000000000000000000000000000000000000000000000000000600052603260045260246000fd5b600081905092915050565b7f3c3f786d6c2076657273696f6e3d22312e302220656e636f64696e673d22555460008201527f462d38223f3e3c7376672077696474683d2237323022206865696768743d223760208201527f3230222076657273696f6e3d22312e31222076696577426f783d22302030203360408201527f3630203336302220786d6c6e733d22687474703a2f2f7777772e77332e6f726760608201527f2f323030302f737667223e3c673e3c726563742077696474683d22313030252260808201527f206865696768743d2231303025222066696c6c3d22000000000000000000000060a082015250565b6000612e9f60b583612da0565b9150612eaa82612dab565b60b582019050919050565b6000612ec0826122d4565b612eca8185612da0565b9350612eda8185602086016122f0565b80840191505092915050565b7f222f3e3c636972636c652063783d223137322e35222063793d2239372e35222060008201527f723d2235322e35222066696c6c3d220000000000000000000000000000000000602082015250565b6000612f42602f83612da0565b9150612f4d82612ee6565b602f82019050919050565b7f222f3e3c636972636c652063783d223137322e35222063793d223236322e352260008201527f20723d2235322e35222066696c6c3d2200000000000000000000000000000000602082015250565b6000612fb4603083612da0565b9150612fbf82612f58565b603082019050919050565b7f222f3e3c7265637420783d223132302220793d2239372e35222077696474683d60008201527f2231303522206865696768743d2238322e35222066696c6c3d22000000000000602082015250565b6000613026603a83612da0565b915061303182612fca565b603a82019050919050565b7f222f3e3c7265637420783d223132302220793d22313830222077696474683d2260008201527f31303522206865696768743d2238322e35222066696c6c3d2200000000000000602082015250565b6000613098603983612da0565b91506130a38261303c565b603982019050919050565b7f222f3e3c636972636c652063783d223136382e3735222063793d2239332e373560008201527f2220723d2234382e3735222066696c6c3d220000000000000000000000000000602082015250565b600061310a603283612da0565b9150613115826130ae565b603282019050919050565b7f222f3e3c636972636c652063783d223136382e3735222063793d223236362e3260008201527f352220723d2234382e3735222066696c6c3d2200000000000000000000000000602082015250565b600061317c603383612da0565b915061318782613120565b603382019050919050565b7f222f3e3c7265637420783d223132302220793d2239372e35222077696474683d60008201527f2239372e3522206865696768743d2238322e35222066696c6c3d220000000000602082015250565b60006131ee603b83612da0565b91506131f982613192565b603b82019050919050565b7f222f3e3c7265637420783d223132302220793d22313830222077696474683d2260008201527f39372e3522206865696768743d2238322e35222066696c6c3d22000000000000602082015250565b6000613260603a83612da0565b915061326b82613204565b603a82019050919050565b7f222f3e3c2f673e3c2f7376673e00000000000000000000000000000000000000815250565b60006132a782612e92565b91506132b3828c612eb5565b91506132be82612f35565b91506132ca828b612eb5565b91506132d582612fa7565b91506132e1828a612eb5565b91506132ec82613019565b91506132f88289612eb5565b91506133038261308b565b915061330f8288612eb5565b915061331a826130fd565b91506133268287612eb5565b91506133318261316f565b915061333d8286612eb5565b9150613348826131e1565b91506133548285612eb5565b915061335f82613253565b915061336b8284612eb5565b915061337682613276565b600d820191508190509a9950505050505050505050565b7f7b226e616d65223a202250696c6c732023000000000000000000000000000000600082015250565b60006133c3601183612da0565b91506133ce8261338d565b601182019050919050565b7f222c20226465736372697074696f6e223a202243686561702050696c6c73222c60008201527f202261747472696275746573223a2022222c2022696d616765223a226461746160208201527f3a696d6167652f7376672b786d6c3b6261736536342c00000000000000000000604082015250565b600061345b605683612da0565b9150613466826133d9565b605682019050919050565b7f227d000000000000000000000000000000000000000000000000000000000000600082015250565b60006134a7600283612da0565b91506134b282613471565b600282019050919050565b60006134c8826133b6565b91506134d48285612eb5565b91506134df8261344e565b91506134eb8284612eb5565b91506134f68261349a565b91508190509392505050565b7f646174613a6170706c69636174696f6e2f6a736f6e3b6261736536342c000000600082015250565b6000613538601d83612da0565b915061354382613502565b601d82019050919050565b60006135598261352b565b91506135658284612eb5565b915081905092915050565b600081519050919050565b600082825260208201905092915050565b600061359782613570565b6135a1818561357b565b93506135b18185602086016122f0565b6135ba8161231a565b840191505092915050565b60006080820190506135da600083018761241b565b6135e7602083018661241b565b6135f460408301856124b1565b8181036060830152613606818461358c565b905095945050505050565b60008151905061362081612245565b92915050565b60006020828403121561363c5761363b61220f565b5b600061364a84828501613611565b91505092915050565b7f4e487b7100000000000000000000000000000000000000000000000000000000600052601260045260246000fd5b600061368d82612386565b915061369883612386565b9250826136a8576136a7613653565b5b828204905092915050565b60006136be82612386565b91506136c983612386565b92508282039050818111156136e1576136e061281f565b5b92915050565b600060ff82169050919050565b60006136ff826136e7565b915061370a836136e7565b9250828201905060ff8111156137235761372261281f565b5b92915050565b600060408201905061373e600083018561241b565b61374b60208301846124b1565b9392505050565b6000819050919050565b61376d61376882612386565b613752565b82525050565b60008160601b9050919050565b600061378b82613773565b9050919050565b600061379d82613780565b9050919050565b6137b56137b082612409565b613792565b82525050565b60006137c7828761375c565b6020820191506137d782866137a4565b6014820191506137e7828561375c565b6020820191506137f7828461375c565b60208201915081905095945050505050565b600061381482612386565b915061381f83612386565b92508261382f5761382e613653565b5b82820690509291505056fe4142434445464748494a4b4c4d4e4f505152535455565758595a6162636465666768696a6b6c6d6e6f707172737475767778797a303132333435363738392b2fa2646970667358221220d3d14d064a7c2938828d5b53ecda617a314841e16d515238353ebc70c7ba941664736f6c63430008180033",
  "linkReferences": {},
  "deployedLinkReferences": {}
}