{
  "_format": "hh-sol-artifact-1",
  "contractName": "Pills",
  "sourceName": "contracts/Pills.sol",
  "abi": [
    {
      "inputs": [],
      "stateMutability": "nonpayable",
      "type": "constructor"
    },
    {
      "inputs": [
        {
          "internalType": "address",
          "name": "sender",
          "type": "address"
        },
        {
          "internalType": "uint256",
          "name": "tokenId",
          "type": "uint256"
        },
        {
          "internalType": "address",
          "name": "owner",
          "type": "address"
        }
      ],
      "name": "ERC721IncorrectOwner",
      "type": "error"
    },
    {
      "inputs": [
        {
          "internalType": "address",
          "name": "operator",
          "type": "address"
        },
        {
          "internalType": "uint256",
          "name": "tokenId",
          "type": "uint256"
        }
      ],
      "name": "ERC721InsufficientApproval",
      "type": "error"
    },
    {
      "inputs": [
        {
          "internalType": "address",
          "name": "approver",
          "type": "address"
        }
      ],
      "name": "ERC721InvalidApprover",
      "type": "error"
    },
    {
      "inputs": [
        {
          "internalType": "address",
          "name": "operator",
          "type": "address"
        }
      ],
      "name": "ERC721InvalidOperator",
      "type": "error"
    },
    {
      "inputs": [
        {
          "internalType": "address",
          "name": "owner",
          "type": "address"
        }
      ],
      "name": "ERC721InvalidOwner",
      "type": "error"
    },
    {
      "inputs": [
        {
          "internalType": "address",
          "name": "receiver",
          "type": "address"
        }
      ],
      "name": "ERC721InvalidReceiver",
      "type": "error"
    },
    {
      "inputs": [
        {
          "internalType": "address",
          "name": "sender",
          "type": "address"
        }
      ],
      "name": "ERC721InvalidSender",
      "type": "error"
    },
    {
      "inputs": [
        {
          "internalType": "uint256",
          "name": "tokenId",
          "type": "uint256"
        }
      ],
      "name": "ERC721NonexistentToken",
      "type": "error"
    },
    {
      "anonymous": false,
      "inputs": [
        {
          "indexed": true,
          "internalType": "address",
          "name": "owner",
          "type": "address"
        },
        {
          "indexed": true,
          "internalType": "address",
          "name": "approved",
          "type": "address"
        },
        {
          "indexed": true,
          "internalType": "uint256",
          "name": "tokenId",
          "type": "uint256"
        }
      ],
      "name": "Approval",
      "type": "event"
    },
    {
      "anonymous": false,
      "inputs": [
        {
          "indexed": true,
          "internalType": "address",
          "name": "owner",
          "type": "address"
        },
        {
          "indexed": true,
          "internalType": "address",
          "name": "operator",
          "type": "address"
        },
        {
          "indexed": false,
          "internalType": "bool",
          "name": "approved",
          "type": "bool"
        }
      ],
      "name": "ApprovalForAll",
      "type": "event"
    },
    {
      "anonymous": false,
      "inputs": [
        {
          "indexed": true,
          "internalType": "uint256",
          "name": "tokenId",
          "type": "uint256"
        }
      ],
      "name": "PillCreated",
      "type": "event"
    },
    {
      "anonymous": false,
      "inputs": [
        {
          "indexed": true,
          "internalType": "address",
          "name": "from",
          "type": "address"
        },
        {
          "indexed": true,
          "internalType": "address",
          "name": "to",
          "type": "address"
        },
        {
          "indexed": true,
          "internalType": "uint256",
          "name": "tokenId",
          "type": "uint256"
        }
      ],
      "name": "Transfer",
      "type": "event"
    },
    {
      "inputs": [
        {
          "internalType": "address",
          "name": "to",
          "type": "address"
        },
        {
          "internalType": "uint256",
          "name": "tokenId",
          "type": "uint256"
        }
      ],
      "name": "approve",
      "outputs": [],
      "stateMutability": "nonpayable",
      "type": "function"
    },
    {
      "inputs": [
        {
          "internalType": "address",
          "name": "owner",
          "type": "address"
        }
      ],
      "name": "balanceOf",
      "outputs": [
        {
          "internalType": "uint256",
          "name": "",
          "type": "uint256"
        }
      ],
      "stateMutability": "view",
      "type": "function"
    },
    {
      "inputs": [],
      "name": "generateFinalSvg",
      "outputs": [
        {
          "internalType": "string",
          "name": "",
          "type": "string"
        }
      ],
      "stateMutability": "view",
      "type": "function"
    },
    {
      "inputs": [
        {
          "internalType": "uint256",
          "name": "tokenId",
          "type": "uint256"
        }
      ],
      "name": "getApproved",
      "outputs": [
        {
          "internalType": "address",
          "name": "",
          "type": "address"
        }
      ],
      "stateMutability": "view",
      "type": "function"
    },
    {
      "inputs": [
        {
          "internalType": "address",
          "name": "owner",
          "type": "address"
        },
        {
          "internalType": "address",
          "name": "operator",
          "type": "address"
        }
      ],
      "name": "isApprovedForAll",
      "outputs": [
        {
          "internalType": "bool",
          "name": "",
          "type": "bool"
        }
      ],
      "stateMutability": "view",
      "type": "function"
    },
    {
      "inputs": [],
      "name": "mintPill",
      "outputs": [],
      "stateMutability": "payable",
      "type": "function"
    },
    {
      "inputs": [],
      "name": "mintPrice",
      "outputs": [
        {
          "internalType": "uint256",
          "name": "",
          "type": "uint256"
        }
      ],
      "stateMutability": "view",
      "type": "function"
    },
    {
      "inputs": [],
      "name": "name",
      "outputs": [
        {
          "internalType": "string",
          "name": "",
          "type": "string"
        }
      ],
      "stateMutability": "view",
      "type": "function"
    },
    {
      "inputs": [
        {
          "internalType": "uint256",
          "name": "tokenId",
          "type": "uint256"
        }
      ],
      "name": "ownerOf",
      "outputs": [
        {
          "internalType": "address",
          "name": "",
          "type": "address"
        }
      ],
      "stateMutability": "view",
      "type": "function"
    },
    {
      "inputs": [
        {
          "internalType": "address",
          "name": "from",
          "type": "address"
        },
        {
          "internalType": "address",
          "name": "to",
          "type": "address"
        },
        {
          "internalType": "uint256",
          "name": "tokenId",
          "type": "uint256"
        }
      ],
      "name": "safeTransferFrom",
      "outputs": [],
      "stateMutability": "nonpayable",
      "type": "function"
    },
    {
      "inputs": [
        {
          "internalType": "address",
          "name": "from",
          "type": "address"
        },
        {
          "internalType": "address",
          "name": "to",
          "type": "address"
        },
        {
          "internalType": "uint256",
          "name": "tokenId",
          "type": "uint256"
        },
        {
          "internalType": "bytes",
          "name": "data",
          "type": "bytes"
        }
      ],
      "name": "safeTransferFrom",
      "outputs": [],
      "stateMutability": "nonpayable",
      "type": "function"
    },
    {
      "inputs": [
        {
          "internalType": "address",
          "name": "operator",
          "type": "address"
        },
        {
          "internalType": "bool",
          "name": "approved",
          "type": "bool"
        }
      ],
      "name": "setApprovalForAll",
      "outputs": [],
      "stateMutability": "nonpayable",
      "type": "function"
    },
    {
      "inputs": [
        {
          "internalType": "bytes4",
          "name": "interfaceId",
          "type": "bytes4"
        }
      ],
      "name": "supportsInterface",
      "outputs": [
        {
          "internalType": "bool",
          "name": "",
          "type": "bool"
        }
      ],
      "stateMutability": "view",
      "type": "function"
    },
    {
      "inputs": [],
      "name": "symbol",
      "outputs": [
        {
          "internalType": "string",
          "name": "",
          "type": "string"
        }
      ],
      "stateMutability": "view",
      "type": "function"
    },
    {
      "inputs": [
        {
          "internalType": "uint256",
          "name": "tokenId",
          "type": "uint256"
        }
      ],
      "name": "tokenURI",
      "outputs": [
        {
          "internalType": "string",
          "name": "",
          "type": "string"
        }
      ],
      "stateMutability": "view",
      "type": "function"
    },
    {
      "inputs": [],
      "name": "totalSupply",
      "outputs": [
        {
          "internalType": "uint256",
          "name": "",
          "type": "uint256"
        }
      ],
      "stateMutability": "view",
      "type": "function"
    },
    {
      "inputs": [
        {
          "internalType": "address",
          "name": "from",
          "type": "address"
        },
        {
          "internalType": "address",
          "name": "to",
          "type": "address"
        },
        {
          "internalType": "uint256",
          "name": "tokenId",
          "type": "uint256"
        }
      ],
      "name": "transferFrom",
      "outputs": [],
      "stateMutability": "nonpayable",
      "type": "function"
    },
    {
      "inputs": [],
      "name": "withdraw",
      "outputs": [],
      "stateMutability": "nonpayable",
      "type": "function"
    }
  ],
  "bytecode": "0x608060405260006007556611c37937e08000600855604051806080016040528060405180604001604052806040518060400160405280600781526020017f233141414143460000000000000000000000000000000000000000000000000081525081526020016040518060400160405280600781526020017f2331423732434600000000000000000000000000000000000000000000000000815250815250815260200160405180604001604052806040518060400160405280600781526020017f234646323133350000000000000000000000000000000000000000000000000081525081526020016040518060400160405280600781526020017f2346463433323100000000000000000000000000000000000000000000000000815250815250815260200160405180604001604052806040518060400160405280600781526020017f234646453430300000000000000000000000000000000000000000000000000081525081526020016040518060400160405280600781526020017f2346464138303000000000000000000000000000000000000000000000000000815250815250815260200160405180604001604052806040518060400160405280600781526020017f233132453839350000000000000000000000000000000000000000000000000081525081526020016040518060400160405280600781526020017f2332334538313300000000000000000000000000000000000000000000000000815250815250815250600a9060046200023f9291906200042f565b5060405180608001604052806040518060400160405280600781526020017f233939353135370000000000000000000000000000000000000000000000000081525081526020016040518060400160405280600781526020017f233337354636390000000000000000000000000000000000000000000000000081525081526020016040518060400160405280600781526020017f233939393033440000000000000000000000000000000000000000000000000081525081526020016040518060400160405280600781526020017f233336344634350000000000000000000000000000000000000000000000000081525081525060129060046200034792919062000487565b503480156200035557600080fd5b506040518060400160405280600d81526020017f54455354494e472050494c4c53000000000000000000000000000000000000008152506040518060400160405280600481526020017f54503639000000000000000000000000000000000000000000000000000000008152508160009081620003d3919062000881565b508060019081620003e5919062000881565b50505033600660006101000a81548173ffffffffffffffffffffffffffffffffffffffff021916908373ffffffffffffffffffffffffffffffffffffffff16021790555062000968565b826004600202810192821562000474579160200282015b82811115620004735782518290600262000462929190620004da565b509160200191906002019062000446565b5b5090506200048391906200052d565b5090565b8260048101928215620004c7579160200282015b82811115620004c6578251829081620004b5919062000881565b50916020019190600101906200049b565b5b509050620004d6919062000555565b5090565b82600281019282156200051a579160200282015b828111156200051957825182908162000508919062000881565b5091602001919060010190620004ee565b5b50905062000529919062000555565b5090565b5b808211156200055157600081816200054791906200057d565b506002016200052e565b5090565b5b808211156200057957600081816200056f9190620005a2565b5060010162000556565b5090565b50600081816200058e9190620005a2565b506001016000620005a09190620005a2565b565b508054620005b09062000670565b6000825580601f10620005c45750620005e5565b601f016020900490600052602060002090810190620005e49190620005e8565b5b50565b5b8082111562000603576000816000905550600101620005e9565b5090565b600081519050919050565b7f4e487b7100000000000000000000000000000000000000000000000000000000600052604160045260246000fd5b7f4e487b7100000000000000000000000000000000000000000000000000000000600052602260045260246000fd5b600060028204905060018216806200068957607f821691505b6020821081036200069f576200069e62000641565b5b50919050565b60008190508160005260206000209050919050565b60006020601f8301049050919050565b600082821b905092915050565b600060088302620007097fffffffffffffffffffffffffffffffffffffffffffffffffffffffffffffffff82620006ca565b620007158683620006ca565b95508019841693508086168417925050509392505050565b6000819050919050565b6000819050919050565b6000620007626200075c62000756846200072d565b62000737565b6200072d565b9050919050565b6000819050919050565b6200077e8362000741565b620007966200078d8262000769565b848454620006d7565b825550505050565b600090565b620007ad6200079e565b620007ba81848462000773565b505050565b5b81811015620007e257620007d6600082620007a3565b600181019050620007c0565b5050565b601f8211156200083157620007fb81620006a5565b6200080684620006ba565b8101602085101562000816578190505b6200082e6200082585620006ba565b830182620007bf565b50505b505050565b600082821c905092915050565b6000620008566000198460080262000836565b1980831691505092915050565b600062000871838362000843565b9150826002028217905092915050565b6200088c8262000607565b67ffffffffffffffff811115620008a857620008a762000612565b5b620008b4825462000670565b620008c1828285620007e6565b600060209050601f831160018114620008f95760008415620008e4578287015190505b620008f0858262000863565b86555062000960565b601f1984166200090986620006a5565b60005b8281101562000933578489015182556001820191506020850194506020810190506200090c565b868310156200095357848901516200094f601f89168262000843565b8355505b6001600288020188555050505b505050505050565b61387080620009786000396000f3fe6080604052600436106101095760003560e01c80636352211e11610095578063a22cb46511610064578063a22cb4651461034a578063b88d4fde14610373578063c87b56dd1461039c578063e80277ae146103d9578063e985e9c51461040457610109565b80636352211e1461027a5780636817c76c146102b757806370a08231146102e257806395d89b411461031f57610109565b806318160ddd116100dc57806318160ddd146101dc5780632173bd7b1461020757806323b872dd146102115780633ccfd60b1461023a57806342842e0e1461025157610109565b806301ffc9a71461010e57806306fdde031461014b578063081812fc14610176578063095ea7b3146101b3575b600080fd5b34801561011a57600080fd5b50610135600480360381019061013091906120ed565b610441565b6040516101429190612135565b60405180910390f35b34801561015757600080fd5b50610160610523565b60405161016d91906121e0565b60405180910390f35b34801561018257600080fd5b5061019d60048036038101906101989190612238565b6105b5565b6040516101aa91906122a6565b60405180910390f35b3480156101bf57600080fd5b506101da60048036038101906101d591906122ed565b6105d1565b005b3480156101e857600080fd5b506101f16105e7565b6040516101fe919061233c565b60405180910390f35b61020f6105ed565b005b34801561021d57600080fd5b5061023860048036038101906102339190612357565b6106bd565b005b34801561024657600080fd5b5061024f6107bf565b005b34801561025d57600080fd5b5061027860048036038101906102739190612357565b61089e565b005b34801561028657600080fd5b506102a1600480360381019061029c9190612238565b6108be565b6040516102ae91906122a6565b60405180910390f35b3480156102c357600080fd5b506102cc6108d0565b6040516102d9919061233c565b60405180910390f35b3480156102ee57600080fd5b50610309600480360381019061030491906123aa565b6108d6565b604051610316919061233c565b60405180910390f35b34801561032b57600080fd5b50610334610990565b60405161034191906121e0565b60405180910390f35b34801561035657600080fd5b50610371600480360381019061036c9190612403565b610a22565b005b34801561037f57600080fd5b5061039a60048036038101906103959190612578565b610a38565b005b3480156103a857600080fd5b506103c360048036038101906103be9190612238565b610a55565b6040516103d091906121e0565b60405180910390f35b3480156103e557600080fd5b506103ee610b93565b6040516103fb91906121e0565b60405180910390f35b34801561041057600080fd5b5061042b600480360381019061042691906125fb565b610cb5565b6040516104389190612135565b60405180910390f35b60007f80ac58cd000000000000000000000000000000000000000000000000000000007bffffffffffffffffffffffffffffffffffffffffffffffffffffffff1916827bffffffffffffffffffffffffffffffffffffffffffffffffffffffff1916148061050c57507f5b5e139f000000000000000000000000000000000000000000000000000000007bffffffffffffffffffffffffffffffffffffffffffffffffffffffff1916827bffffffffffffffffffffffffffffffffffffffffffffffffffffffff1916145b8061051c575061051b82610d49565b5b9050919050565b6060600080546105329061266a565b80601f016020809104026020016040519081016040528092919081815260200182805461055e9061266a565b80156105ab5780601f10610580576101008083540402835291602001916105ab565b820191906000526020600020905b81548152906001019060200180831161058e57829003601f168201915b5050505050905090565b60006105c082610db3565b506105ca82610e3b565b9050919050565b6105e382826105de610e78565b610e80565b5050565b60075481565b600854341015610632576040517f08c379a0000000000000000000000000000000000000000000000000000000008152600401610629906126e7565b60405180910390fd5b600060016007546106439190612736565b905061064d610b93565b60096000838152602001908152602001600020908161066c9190612916565b506106773382610e92565b600760008154610686906129e8565b91905081905550807f455f94a20e4ba416206299864d67b8c39c07427b8f9068a9a9e533417cdb484d60405160405180910390a250565b600073ffffffffffffffffffffffffffffffffffffffff168273ffffffffffffffffffffffffffffffffffffffff160361072f5760006040517f64a0ae9200000000000000000000000000000000000000000000000000000000815260040161072691906122a6565b60405180910390fd5b6000610743838361073e610e78565b610f8b565b90508373ffffffffffffffffffffffffffffffffffffffff168173ffffffffffffffffffffffffffffffffffffffff16146107b9578382826040517f64283d7b0000000000000000000000000000000000000000000000000000000081526004016107b093929190612a30565b60405180910390fd5b50505050565b600660009054906101000a900473ffffffffffffffffffffffffffffffffffffffff1673ffffffffffffffffffffffffffffffffffffffff163373ffffffffffffffffffffffffffffffffffffffff161461084f576040517f08c379a000000000000000000000000000000000000000000000000000000000815260040161084690612ab3565b60405180910390fd5b60004790503373ffffffffffffffffffffffffffffffffffffffff166108fc829081150290604051600060405180830381858888f1935050505015801561089a573d6000803e3d6000fd5b5050565b6108b983838360405180602001604052806000815250610a38565b505050565b60006108c982610db3565b9050919050565b60085481565b60008073ffffffffffffffffffffffffffffffffffffffff168273ffffffffffffffffffffffffffffffffffffffff16036109495760006040517f89c62b6400000000000000000000000000000000000000000000000000000000815260040161094091906122a6565b60405180910390fd5b600360008373ffffffffffffffffffffffffffffffffffffffff1673ffffffffffffffffffffffffffffffffffffffff168152602001908152602001600020549050919050565b60606001805461099f9061266a565b80601f01602080910402602001604051908101604052809291908181526020018280546109cb9061266a565b8015610a185780601f106109ed57610100808354040283529160200191610a18565b820191906000526020600020905b8154815290600101906020018083116109fb57829003601f168201915b5050505050905090565b610a34610a2d610e78565b83836111a5565b5050565b610a438484846106bd565b610a4f84848484611314565b50505050565b6060600073ffffffffffffffffffffffffffffffffffffffff16610a78836114cb565b73ffffffffffffffffffffffffffffffffffffffff1603610a9857600080fd5b610b6d610aa483611508565b610b48600960008681526020019081526020016000208054610ac59061266a565b80601f0160208091040260200160405190810160405280929190818152602001828054610af19061266a565b8015610b3e5780601f10610b1357610100808354040283529160200191610b3e565b820191906000526020600020905b815481529060010190602001808311610b2157829003601f168201915b5050505050611690565b604051602001610b59929190612c3f565b604051602081830303815290604052611690565b604051602001610b7d9190612cd0565b6040516020818303038152906040529050919050565b60606000610b9f611802565b9050600081600460058110610bb757610bb6612cf2565b5b602002015182600060058110610bd057610bcf612cf2565b5b602002015183600260058110610be957610be8612cf2565b5b602002015184600060058110610c0257610c01612cf2565b5b602002015185600260058110610c1b57610c1a612cf2565b5b602002015186600160058110610c3457610c33612cf2565b5b602002015187600360058110610c4d57610c4c612cf2565b5b602002015188600160058110610c6657610c65612cf2565b5b602002015189600360058110610c7f57610c7e612cf2565b5b6020020151604051602001610c9c99989796959493929190613383565b6040516020818303038152906040529050809250505090565b6000600560008473ffffffffffffffffffffffffffffffffffffffff1673ffffffffffffffffffffffffffffffffffffffff16815260200190815260200160002060008373ffffffffffffffffffffffffffffffffffffffff1673ffffffffffffffffffffffffffffffffffffffff16815260200190815260200160002060009054906101000a900460ff16905092915050565b60007f01ffc9a7000000000000000000000000000000000000000000000000000000007bffffffffffffffffffffffffffffffffffffffffffffffffffffffff1916827bffffffffffffffffffffffffffffffffffffffffffffffffffffffff1916149050919050565b600080610dbf836114cb565b9050600073ffffffffffffffffffffffffffffffffffffffff168173ffffffffffffffffffffffffffffffffffffffff1603610e3257826040517f7e273289000000000000000000000000000000000000000000000000000000008152600401610e29919061233c565b60405180910390fd5b80915050919050565b60006004600083815260200190815260200160002060009054906101000a900473ffffffffffffffffffffffffffffffffffffffff169050919050565b600033905090565b610e8d8383836001611c46565b505050565b600073ffffffffffffffffffffffffffffffffffffffff168273ffffffffffffffffffffffffffffffffffffffff1603610f045760006040517f64a0ae92000000000000000000000000000000000000000000000000000000008152600401610efb91906122a6565b60405180910390fd5b6000610f1283836000610f8b565b9050600073ffffffffffffffffffffffffffffffffffffffff168173ffffffffffffffffffffffffffffffffffffffff1614610f865760006040517f73c6ac6e000000000000000000000000000000000000000000000000000000008152600401610f7d91906122a6565b60405180910390fd5b505050565b600080610f97846114cb565b9050600073ffffffffffffffffffffffffffffffffffffffff168373ffffffffffffffffffffffffffffffffffffffff1614610fd957610fd8818486611e0b565b5b600073ffffffffffffffffffffffffffffffffffffffff168173ffffffffffffffffffffffffffffffffffffffff161461106a5761101b600085600080611c46565b6001600360008373ffffffffffffffffffffffffffffffffffffffff1673ffffffffffffffffffffffffffffffffffffffff168152602001908152602001600020600082825403925050819055505b600073ffffffffffffffffffffffffffffffffffffffff168573ffffffffffffffffffffffffffffffffffffffff16146110ed576001600360008773ffffffffffffffffffffffffffffffffffffffff1673ffffffffffffffffffffffffffffffffffffffff168152602001908152602001600020600082825401925050819055505b846002600086815260200190815260200160002060006101000a81548173ffffffffffffffffffffffffffffffffffffffff021916908373ffffffffffffffffffffffffffffffffffffffff160217905550838573ffffffffffffffffffffffffffffffffffffffff168273ffffffffffffffffffffffffffffffffffffffff167fddf252ad1be2c89b69c2b068fc378daa952ba7f163c4a11628f55a4df523b3ef60405160405180910390a4809150509392505050565b600073ffffffffffffffffffffffffffffffffffffffff168273ffffffffffffffffffffffffffffffffffffffff160361121657816040517f5b08ba1800000000000000000000000000000000000000000000000000000000815260040161120d91906122a6565b60405180910390fd5b80600560008573ffffffffffffffffffffffffffffffffffffffff1673ffffffffffffffffffffffffffffffffffffffff16815260200190815260200160002060008473ffffffffffffffffffffffffffffffffffffffff1673ffffffffffffffffffffffffffffffffffffffff16815260200190815260200160002060006101000a81548160ff0219169083151502179055508173ffffffffffffffffffffffffffffffffffffffff168373ffffffffffffffffffffffffffffffffffffffff167f17307eab39ab6107e8899845ad3d59bd9653f200f220920489ca2b5937696c31836040516113079190612135565b60405180910390a3505050565b60008373ffffffffffffffffffffffffffffffffffffffff163b11156114c5578273ffffffffffffffffffffffffffffffffffffffff1663150b7a02611358610e78565b8685856040518563ffffffff1660e01b815260040161137a9493929190613554565b6020604051808303816000875af19250505080156113b657506040513d601f19601f820116820180604052508101906113b391906135b5565b60015b61143a573d80600081146113e6576040519150601f19603f3d011682016040523d82523d6000602084013e6113eb565b606091505b50600081510361143257836040517f64a0ae9200000000000000000000000000000000000000000000000000000000815260040161142991906122a6565b60405180910390fd5b805181602001fd5b63150b7a0260e01b7bffffffffffffffffffffffffffffffffffffffffffffffffffffffff1916817bffffffffffffffffffffffffffffffffffffffffffffffffffffffff1916146114c357836040517f64a0ae920000000000000000000000000000000000000000000000000000000081526004016114ba91906122a6565b60405180910390fd5b505b50505050565b60006002600083815260200190815260200160002060009054906101000a900473ffffffffffffffffffffffffffffffffffffffff169050919050565b60606000820361154f576040518060400160405280600181526020017f3000000000000000000000000000000000000000000000000000000000000000815250905061168b565b600082905060005b6000821461158157808061156a906129e8565b915050600a8261157a9190613611565b9150611557565b60008167ffffffffffffffff81111561159d5761159c61244d565b5b6040519080825280601f01601f1916602001820160405280156115cf5781602001600182028036833780820191505090505b50905060008290505b60008614611683576001816115ed9190613642565b90506000600a80886115ff9190613611565b6116099190613676565b876116149190613642565b603061162091906136c5565b905060008160f81b90508084848151811061163e5761163d612cf2565b5b60200101907effffffffffffffffffffffffffffffffffffffffffffffffffffffffffffff1916908160001a905350600a8861167a9190613611565b975050506115d8565b819450505050505b919050565b606060008251036116b2576040518060200160405280600081525090506117fd565b60006040518060600160405280604081526020016137fb60409139905060006003600285516116e19190612736565b6116eb9190613611565b60046116f79190613676565b67ffffffffffffffff8111156117105761170f61244d565b5b6040519080825280601f01601f1916602001820160405280156117425781602001600182028036833780820191505090505b50905060018201602082018586518701602081018051600082525b828410156117b8576003840193508351603f8160121c168701518653600186019550603f81600c1c168701518653600186019550603f8160061c168701518653600186019550603f811687015186536001860195505061175d565b80825260038a5106600181146117d557600281146117e8576117f0565b603d6001870353603d60028703536117f0565b603d60018703535b5050505050505080925050505b919050565b61180a612038565b6000611814611ecf565b905060008160006005811061182c5761182b612cf2565b5b6020020151905060008260016005811061184957611848612cf2565b5b6020020151905060008360026005811061186657611865612cf2565b5b6020020151905060008460036005811061188357611882612cf2565b5b602002015190506000856004600581106118a05761189f612cf2565b5b602002015190506000600a86600481106118bd576118bc612cf2565b5b60020201600280602002604051908101604052809291906000905b8282101561197b5783820180546118ee9061266a565b80601f016020809104026020016040519081016040528092919081815260200182805461191a9061266a565b80156119675780601f1061193c57610100808354040283529160200191611967565b820191906000526020600020905b81548152906001019060200180831161194a57829003601f168201915b5050505050815260200190600101906118d8565b5050505090506000600a866004811061199757611996612cf2565b5b60020201600280602002604051908101604052809291906000905b82821015611a555783820180546119c89061266a565b80601f01602080910402602001604051908101604052809291908181526020018280546119f49061266a565b8015611a415780601f10611a1657610100808354040283529160200191611a41565b820191906000526020600020905b815481529060010190602001808311611a2457829003601f168201915b5050505050815260200190600101906119b2565b505050509050600060018514611a835782600060028110611a7957611a78612cf2565b5b6020020151611a9d565b82600160028110611a9757611a96612cf2565b5b60200201515b9050600060018614611ac75783600160028110611abd57611abc612cf2565b5b6020020151611ae1565b83600060028110611adb57611ada612cf2565b5b60200201515b9050600060018614611b0b5783600060028110611b0157611b00612cf2565b5b6020020151611b25565b83600160028110611b1f57611b1e612cf2565b5b60200201515b9050600060018714611b4f5784600160028110611b4557611b44612cf2565b5b6020020151611b69565b84600060028110611b6357611b62612cf2565b5b60200201515b9050600060128a60048110611b8157611b80612cf2565b5b018054611b8d9061266a565b80601f0160208091040260200160405190810160405280929190818152602001828054611bb99061266a565b8015611c065780601f10611bdb57610100808354040283529160200191611c06565b820191906000526020600020905b815481529060010190602001808311611be957829003601f168201915b505050505090506040518060a00160405280868152602001858152602001848152602001838152602001828152509d505050505050505050505050505090565b8080611c7f5750600073ffffffffffffffffffffffffffffffffffffffff168273ffffffffffffffffffffffffffffffffffffffff1614155b15611db3576000611c8f84610db3565b9050600073ffffffffffffffffffffffffffffffffffffffff168373ffffffffffffffffffffffffffffffffffffffff1614158015611cfa57508273ffffffffffffffffffffffffffffffffffffffff168173ffffffffffffffffffffffffffffffffffffffff1614155b8015611d0d5750611d0b8184610cb5565b155b15611d4f57826040517fa9fbf51f000000000000000000000000000000000000000000000000000000008152600401611d4691906122a6565b60405180910390fd5b8115611db157838573ffffffffffffffffffffffffffffffffffffffff168273ffffffffffffffffffffffffffffffffffffffff167f8c5be1e5ebec7d5bd14f71427d1e84f3dd0314c0f7b2291e5b200ac8c7c3b92560405160405180910390a45b505b836004600085815260200190815260200160002060006101000a81548173ffffffffffffffffffffffffffffffffffffffff021916908373ffffffffffffffffffffffffffffffffffffffff16021790555050505050565b611e16838383611f77565b611eca57600073ffffffffffffffffffffffffffffffffffffffff168373ffffffffffffffffffffffffffffffffffffffff1603611e8b57806040517f7e273289000000000000000000000000000000000000000000000000000000008152600401611e82919061233c565b60405180910390fd5b81816040517f177e802f000000000000000000000000000000000000000000000000000000008152600401611ec19291906136fa565b60405180910390fd5b505050565b611ed761205f565b611edf61205f565b60005b6005811015611f6f576000423383604051602001611f029392919061378c565b6040516020818303038152906040528051906020012060001c905060038210611f3757600281611f3291906137c9565b611f45565b600481611f4491906137c9565b5b838360058110611f5857611f57612cf2565b5b602002018181525050508080600101915050611ee2565b508091505090565b60008073ffffffffffffffffffffffffffffffffffffffff168373ffffffffffffffffffffffffffffffffffffffff161415801561202f57508273ffffffffffffffffffffffffffffffffffffffff168473ffffffffffffffffffffffffffffffffffffffff161480611ff05750611fef8484610cb5565b5b8061202e57508273ffffffffffffffffffffffffffffffffffffffff1661201683610e3b565b73ffffffffffffffffffffffffffffffffffffffff16145b5b90509392505050565b6040518060a001604052806005905b60608152602001906001900390816120475790505090565b6040518060a00160405280600590602082028036833780820191505090505090565b6000604051905090565b600080fd5b600080fd5b60007fffffffff0000000000000000000000000000000000000000000000000000000082169050919050565b6120ca81612095565b81146120d557600080fd5b50565b6000813590506120e7816120c1565b92915050565b6000602082840312156121035761210261208b565b5b6000612111848285016120d8565b91505092915050565b60008115159050919050565b61212f8161211a565b82525050565b600060208201905061214a6000830184612126565b92915050565b600081519050919050565b600082825260208201905092915050565b60005b8381101561218a57808201518184015260208101905061216f565b60008484015250505050565b6000601f19601f8301169050919050565b60006121b282612150565b6121bc818561215b565b93506121cc81856020860161216c565b6121d581612196565b840191505092915050565b600060208201905081810360008301526121fa81846121a7565b905092915050565b6000819050919050565b61221581612202565b811461222057600080fd5b50565b6000813590506122328161220c565b92915050565b60006020828403121561224e5761224d61208b565b5b600061225c84828501612223565b91505092915050565b600073ffffffffffffffffffffffffffffffffffffffff82169050919050565b600061229082612265565b9050919050565b6122a081612285565b82525050565b60006020820190506122bb6000830184612297565b92915050565b6122ca81612285565b81146122d557600080fd5b50565b6000813590506122e7816122c1565b92915050565b600080604083850312156123045761230361208b565b5b6000612312858286016122d8565b925050602061232385828601612223565b9150509250929050565b61233681612202565b82525050565b6000602082019050612351600083018461232d565b92915050565b6000806000606084860312156123705761236f61208b565b5b600061237e868287016122d8565b935050602061238f868287016122d8565b92505060406123a086828701612223565b9150509250925092565b6000602082840312156123c0576123bf61208b565b5b60006123ce848285016122d8565b91505092915050565b6123e08161211a565b81146123eb57600080fd5b50565b6000813590506123fd816123d7565b92915050565b6000806040838503121561241a5761241961208b565b5b6000612428858286016122d8565b9250506020612439858286016123ee565b9150509250929050565b600080fd5b600080fd5b7f4e487b7100000000000000000000000000000000000000000000000000000000600052604160045260246000fd5b61248582612196565b810181811067ffffffffffffffff821117156124a4576124a361244d565b5b80604052505050565b60006124b7612081565b90506124c3828261247c565b919050565b600067ffffffffffffffff8211156124e3576124e261244d565b5b6124ec82612196565b9050602081019050919050565b82818337600083830152505050565b600061251b612516846124c8565b6124ad565b90508281526020810184848401111561253757612536612448565b5b6125428482856124f9565b509392505050565b600082601f83011261255f5761255e612443565b5b813561256f848260208601612508565b91505092915050565b600080600080608085870312156125925761259161208b565b5b60006125a0878288016122d8565b94505060206125b1878288016122d8565b93505060406125c287828801612223565b925050606085013567ffffffffffffffff8111156125e3576125e2612090565b5b6125ef8782880161254a565b91505092959194509250565b600080604083850312156126125761261161208b565b5b6000612620858286016122d8565b9250506020612631858286016122d8565b9150509250929050565b7f4e487b7100000000000000000000000000000000000000000000000000000000600052602260045260246000fd5b6000600282049050600182168061268257607f821691505b6020821081036126955761269461263b565b5b50919050565b7f4e6f7420656e6f756768204554482073656e7400000000000000000000000000600082015250565b60006126d160138361215b565b91506126dc8261269b565b602082019050919050565b60006020820190508181036000830152612700816126c4565b9050919050565b7f4e487b7100000000000000000000000000000000000000000000000000000000600052601160045260246000fd5b600061274182612202565b915061274c83612202565b925082820190508082111561276457612763612707565b5b92915050565b60008190508160005260206000209050919050565b60006020601f8301049050919050565b600082821b905092915050565b6000600883026127cc7fffffffffffffffffffffffffffffffffffffffffffffffffffffffffffffffff8261278f565b6127d6868361278f565b95508019841693508086168417925050509392505050565b6000819050919050565b600061281361280e61280984612202565b6127ee565b612202565b9050919050565b6000819050919050565b61282d836127f8565b6128416128398261281a565b84845461279c565b825550505050565b600090565b612856612849565b612861818484612824565b505050565b5b818110156128855761287a60008261284e565b600181019050612867565b5050565b601f8211156128ca5761289b8161276a565b6128a48461277f565b810160208510156128b3578190505b6128c76128bf8561277f565b830182612866565b50505b505050565b600082821c905092915050565b60006128ed600019846008026128cf565b1980831691505092915050565b600061290683836128dc565b9150826002028217905092915050565b61291f82612150565b67ffffffffffffffff8111156129385761293761244d565b5b612942825461266a565b61294d828285612889565b600060209050601f831160018114612980576000841561296e578287015190505b61297885826128fa565b8655506129e0565b601f19841661298e8661276a565b60005b828110156129b657848901518255600182019150602085019450602081019050612991565b868310156129d357848901516129cf601f8916826128dc565b8355505b6001600288020188555050505b505050505050565b60006129f382612202565b91507fffffffffffffffffffffffffffffffffffffffffffffffffffffffffffffffff8203612a2557612a24612707565b5b600182019050919050565b6000606082019050612a456000830186612297565b612a52602083018561232d565b612a5f6040830184612297565b949350505050565b7f6f6e6c79206f776e657200000000000000000000000000000000000000000000600082015250565b6000612a9d600a8361215b565b9150612aa882612a67565b602082019050919050565b60006020820190508181036000830152612acc81612a90565b9050919050565b600081905092915050565b7f7b226e616d65223a202250696c6c732023000000000000000000000000000000600082015250565b6000612b14601183612ad3565b9150612b1f82612ade565b601182019050919050565b6000612b3582612150565b612b3f8185612ad3565b9350612b4f81856020860161216c565b80840191505092915050565b7f222c20226465736372697074696f6e223a202243686561702050696c6c73222c60008201527f202261747472696275746573223a2022222c2022696d616765223a226461746160208201527f3a696d6167652f7376672b786d6c3b6261736536342c00000000000000000000604082015250565b6000612bdd605683612ad3565b9150612be882612b5b565b605682019050919050565b7f227d000000000000000000000000000000000000000000000000000000000000600082015250565b6000612c29600283612ad3565b9150612c3482612bf3565b600282019050919050565b6000612c4a82612b07565b9150612c568285612b2a565b9150612c6182612bd0565b9150612c6d8284612b2a565b9150612c7882612c1c565b91508190509392505050565b7f646174613a6170706c69636174696f6e2f6a736f6e3b6261736536342c000000600082015250565b6000612cba601d83612ad3565b9150612cc582612c84565b601d82019050919050565b6000612cdb82612cad565b9150612ce78284612b2a565b915081905092915050565b7f4e487b7100000000000000000000000000000000000000000000000000000000600052603260045260246000fd5b7f3c3f786d6c2076657273696f6e3d22312e302220656e636f64696e673d22555460008201527f462d38223f3e0000000000000000000000000000000000000000000000000000602082015250565b6000612d7d602683612ad3565b9150612d8882612d21565b602682019050919050565b7f3c7376672077696474683d2237323022206865696768743d223732302220766560008201527f7273696f6e3d22312e31222076696577426f783d22302030203336302033363060208201527f2220786d6c6e733d22687474703a2f2f7777772e77332e6f72672f323030302f60408201527f737667223e000000000000000000000000000000000000000000000000000000606082015250565b6000612e3b606583612ad3565b9150612e4682612d93565b606582019050919050565b7f3c673e0000000000000000000000000000000000000000000000000000000000600082015250565b6000612e87600383612ad3565b9150612e9282612e51565b600382019050919050565b7f3c726563742077696474683d223130302522206865696768743d22313030252260008201527f2066696c6c3d2200000000000000000000000000000000000000000000000000602082015250565b6000612ef9602783612ad3565b9150612f0482612e9d565b602782019050919050565b7f222f3e0000000000000000000000000000000000000000000000000000000000600082015250565b6000612f45600383612ad3565b9150612f5082612f0f565b600382019050919050565b7f3c636972636c652063783d223137322e35222063793d2239372e352220723d2260008201527f35322e35222066696c6c3d220000000000000000000000000000000000000000602082015250565b6000612fb7602c83612ad3565b9150612fc282612f5b565b602c82019050919050565b7f3c636972636c652063783d223137322e35222063793d223236322e352220723d60008201527f2235322e35222066696c6c3d2200000000000000000000000000000000000000602082015250565b6000613029602d83612ad3565b915061303482612fcd565b602d82019050919050565b7f3c7265637420783d223132302220793d2239372e35222077696474683d22313060008201527f3522206865696768743d2238322e35222066696c6c3d22000000000000000000602082015250565b600061309b603783612ad3565b91506130a68261303f565b603782019050919050565b7f3c7265637420783d223132302220793d22313830222077696474683d2231303560008201527f22206865696768743d2238322e35222066696c6c3d2200000000000000000000602082015250565b600061310d603683612ad3565b9150613118826130b1565b603682019050919050565b7f3c636972636c652063783d223136382e3735222063793d2239332e373522207260008201527f3d2234382e3735222066696c6c3d220000000000000000000000000000000000602082015250565b600061317f602f83612ad3565b915061318a82613123565b602f82019050919050565b7f3c636972636c652063783d223136382e3735222063793d223236362e3235222060008201527f723d2234382e3735222066696c6c3d2200000000000000000000000000000000602082015250565b60006131f1603083612ad3565b91506131fc82613195565b603082019050919050565b7f3c7265637420783d223132302220793d2239372e35222077696474683d22393760008201527f2e3522206865696768743d2238322e35222066696c6c3d220000000000000000602082015250565b6000613263603883612ad3565b915061326e82613207565b603882019050919050565b7f3c7265637420783d223132302220793d22313830222077696474683d2239372e60008201527f3522206865696768743d2238322e35222066696c6c3d22000000000000000000602082015250565b60006132d5603783612ad3565b91506132e082613279565b603782019050919050565b7f3c2f673e00000000000000000000000000000000000000000000000000000000600082015250565b6000613321600483612ad3565b915061332c826132eb565b600482019050919050565b7f3c2f7376673e0000000000000000000000000000000000000000000000000000600082015250565b600061336d600683612ad3565b915061337882613337565b600682019050919050565b600061338e82612d70565b915061339982612e2e565b91506133a482612e7a565b91506133af82612eec565b91506133bb828c612b2a565b91506133c682612f38565b91506133d182612faa565b91506133dd828b612b2a565b91506133e882612f38565b91506133f38261301c565b91506133ff828a612b2a565b915061340a82612f38565b91506134158261308e565b91506134218289612b2a565b915061342c82612f38565b915061343782613100565b91506134438288612b2a565b915061344e82612f38565b915061345982613172565b91506134658287612b2a565b915061347082612f38565b915061347b826131e4565b91506134878286612b2a565b915061349282612f38565b915061349d82613256565b91506134a98285612b2a565b91506134b482612f38565b91506134bf826132c8565b91506134cb8284612b2a565b91506134d682612f38565b91506134e182613314565b91506134ec82613360565b91508190509a9950505050505050505050565b600081519050919050565b600082825260208201905092915050565b6000613526826134ff565b613530818561350a565b935061354081856020860161216c565b61354981612196565b840191505092915050565b60006080820190506135696000830187612297565b6135766020830186612297565b613583604083018561232d565b8181036060830152613595818461351b565b905095945050505050565b6000815190506135af816120c1565b92915050565b6000602082840312156135cb576135ca61208b565b5b60006135d9848285016135a0565b91505092915050565b7f4e487b7100000000000000000000000000000000000000000000000000000000600052601260045260246000fd5b600061361c82612202565b915061362783612202565b925082613637576136366135e2565b5b828204905092915050565b600061364d82612202565b915061365883612202565b92508282039050818111156136705761366f612707565b5b92915050565b600061368182612202565b915061368c83612202565b925082820261369a81612202565b915082820484148315176136b1576136b0612707565b5b5092915050565b600060ff82169050919050565b60006136d0826136b8565b91506136db836136b8565b9250828201905060ff8111156136f4576136f3612707565b5b92915050565b600060408201905061370f6000830185612297565b61371c602083018461232d565b9392505050565b6000819050919050565b61373e61373982612202565b613723565b82525050565b60008160601b9050919050565b600061375c82613744565b9050919050565b600061376e82613751565b9050919050565b61378661378182612285565b613763565b82525050565b6000613798828661372d565b6020820191506137a88285613775565b6014820191506137b8828461372d565b602082019150819050949350505050565b60006137d482612202565b91506137df83612202565b9250826137ef576137ee6135e2565b5b82820690509291505056fe4142434445464748494a4b4c4d4e4f505152535455565758595a6162636465666768696a6b6c6d6e6f707172737475767778797a303132333435363738392b2fa26469706673582212201f17d9723cac1086b33762c1c99c57ca748cdb2adaa1fca73e99ba43beedc9d664736f6c63430008180033",
  "linkReferences": {},
  "deployedLinkReferences": {}
}