{
  "_format": "hh-sol-artifact-1",
  "contractName": "Pills",
  "sourceName": "contracts/Pills.sol",
  "abi": [
    {
      "inputs": [],
      "stateMutability": "nonpayable",
      "type": "constructor"
    },
    {
      "inputs": [
        {
          "internalType": "address",
          "name": "sender",
          "type": "address"
        },
        {
          "internalType": "uint256",
          "name": "tokenId",
          "type": "uint256"
        },
        {
          "internalType": "address",
          "name": "owner",
          "type": "address"
        }
      ],
      "name": "ERC721IncorrectOwner",
      "type": "error"
    },
    {
      "inputs": [
        {
          "internalType": "address",
          "name": "operator",
          "type": "address"
        },
        {
          "internalType": "uint256",
          "name": "tokenId",
          "type": "uint256"
        }
      ],
      "name": "ERC721InsufficientApproval",
      "type": "error"
    },
    {
      "inputs": [
        {
          "internalType": "address",
          "name": "approver",
          "type": "address"
        }
      ],
      "name": "ERC721InvalidApprover",
      "type": "error"
    },
    {
      "inputs": [
        {
          "internalType": "address",
          "name": "operator",
          "type": "address"
        }
      ],
      "name": "ERC721InvalidOperator",
      "type": "error"
    },
    {
      "inputs": [
        {
          "internalType": "address",
          "name": "owner",
          "type": "address"
        }
      ],
      "name": "ERC721InvalidOwner",
      "type": "error"
    },
    {
      "inputs": [
        {
          "internalType": "address",
          "name": "receiver",
          "type": "address"
        }
      ],
      "name": "ERC721InvalidReceiver",
      "type": "error"
    },
    {
      "inputs": [
        {
          "internalType": "address",
          "name": "sender",
          "type": "address"
        }
      ],
      "name": "ERC721InvalidSender",
      "type": "error"
    },
    {
      "inputs": [
        {
          "internalType": "uint256",
          "name": "tokenId",
          "type": "uint256"
        }
      ],
      "name": "ERC721NonexistentToken",
      "type": "error"
    },
    {
      "anonymous": false,
      "inputs": [
        {
          "indexed": true,
          "internalType": "address",
          "name": "owner",
          "type": "address"
        },
        {
          "indexed": true,
          "internalType": "address",
          "name": "approved",
          "type": "address"
        },
        {
          "indexed": true,
          "internalType": "uint256",
          "name": "tokenId",
          "type": "uint256"
        }
      ],
      "name": "Approval",
      "type": "event"
    },
    {
      "anonymous": false,
      "inputs": [
        {
          "indexed": true,
          "internalType": "address",
          "name": "owner",
          "type": "address"
        },
        {
          "indexed": true,
          "internalType": "address",
          "name": "operator",
          "type": "address"
        },
        {
          "indexed": false,
          "internalType": "bool",
          "name": "approved",
          "type": "bool"
        }
      ],
      "name": "ApprovalForAll",
      "type": "event"
    },
    {
      "anonymous": false,
      "inputs": [
        {
          "indexed": true,
          "internalType": "address",
          "name": "from",
          "type": "address"
        },
        {
          "indexed": true,
          "internalType": "address",
          "name": "to",
          "type": "address"
        },
        {
          "indexed": true,
          "internalType": "uint256",
          "name": "tokenId",
          "type": "uint256"
        }
      ],
      "name": "Transfer",
      "type": "event"
    },
    {
      "inputs": [
        {
          "internalType": "address",
          "name": "to",
          "type": "address"
        },
        {
          "internalType": "uint256",
          "name": "tokenId",
          "type": "uint256"
        }
      ],
      "name": "approve",
      "outputs": [],
      "stateMutability": "nonpayable",
      "type": "function"
    },
    {
      "inputs": [
        {
          "internalType": "address",
          "name": "owner",
          "type": "address"
        }
      ],
      "name": "balanceOf",
      "outputs": [
        {
          "internalType": "uint256",
          "name": "",
          "type": "uint256"
        }
      ],
      "stateMutability": "view",
      "type": "function"
    },
    {
      "inputs": [],
      "name": "generateFinalSvg",
      "outputs": [
        {
          "internalType": "string",
          "name": "",
          "type": "string"
        }
      ],
      "stateMutability": "view",
      "type": "function"
    },
    {
      "inputs": [
        {
          "internalType": "uint256",
          "name": "tokenId",
          "type": "uint256"
        }
      ],
      "name": "getApproved",
      "outputs": [
        {
          "internalType": "address",
          "name": "",
          "type": "address"
        }
      ],
      "stateMutability": "view",
      "type": "function"
    },
    {
      "inputs": [
        {
          "internalType": "address",
          "name": "owner",
          "type": "address"
        },
        {
          "internalType": "address",
          "name": "operator",
          "type": "address"
        }
      ],
      "name": "isApprovedForAll",
      "outputs": [
        {
          "internalType": "bool",
          "name": "",
          "type": "bool"
        }
      ],
      "stateMutability": "view",
      "type": "function"
    },
    {
      "inputs": [
        {
          "internalType": "uint256",
          "name": "numberOfTokens",
          "type": "uint256"
        }
      ],
      "name": "mintBatch",
      "outputs": [],
      "stateMutability": "payable",
      "type": "function"
    },
    {
      "inputs": [],
      "name": "mintPill",
      "outputs": [],
      "stateMutability": "payable",
      "type": "function"
    },
    {
      "inputs": [],
      "name": "mintPrice",
      "outputs": [
        {
          "internalType": "uint256",
          "name": "",
          "type": "uint256"
        }
      ],
      "stateMutability": "view",
      "type": "function"
    },
    {
      "inputs": [],
      "name": "name",
      "outputs": [
        {
          "internalType": "string",
          "name": "",
          "type": "string"
        }
      ],
      "stateMutability": "view",
      "type": "function"
    },
    {
      "inputs": [
        {
          "internalType": "uint256",
          "name": "tokenId",
          "type": "uint256"
        }
      ],
      "name": "ownerOf",
      "outputs": [
        {
          "internalType": "address",
          "name": "",
          "type": "address"
        }
      ],
      "stateMutability": "view",
      "type": "function"
    },
    {
      "inputs": [
        {
          "internalType": "address",
          "name": "from",
          "type": "address"
        },
        {
          "internalType": "address",
          "name": "to",
          "type": "address"
        },
        {
          "internalType": "uint256",
          "name": "tokenId",
          "type": "uint256"
        }
      ],
      "name": "safeTransferFrom",
      "outputs": [],
      "stateMutability": "nonpayable",
      "type": "function"
    },
    {
      "inputs": [
        {
          "internalType": "address",
          "name": "from",
          "type": "address"
        },
        {
          "internalType": "address",
          "name": "to",
          "type": "address"
        },
        {
          "internalType": "uint256",
          "name": "tokenId",
          "type": "uint256"
        },
        {
          "internalType": "bytes",
          "name": "data",
          "type": "bytes"
        }
      ],
      "name": "safeTransferFrom",
      "outputs": [],
      "stateMutability": "nonpayable",
      "type": "function"
    },
    {
      "inputs": [
        {
          "internalType": "address",
          "name": "operator",
          "type": "address"
        },
        {
          "internalType": "bool",
          "name": "approved",
          "type": "bool"
        }
      ],
      "name": "setApprovalForAll",
      "outputs": [],
      "stateMutability": "nonpayable",
      "type": "function"
    },
    {
      "inputs": [
        {
          "internalType": "bytes4",
          "name": "interfaceId",
          "type": "bytes4"
        }
      ],
      "name": "supportsInterface",
      "outputs": [
        {
          "internalType": "bool",
          "name": "",
          "type": "bool"
        }
      ],
      "stateMutability": "view",
      "type": "function"
    },
    {
      "inputs": [],
      "name": "symbol",
      "outputs": [
        {
          "internalType": "string",
          "name": "",
          "type": "string"
        }
      ],
      "stateMutability": "view",
      "type": "function"
    },
    {
      "inputs": [
        {
          "internalType": "uint256",
          "name": "tokenId",
          "type": "uint256"
        }
      ],
      "name": "tokenURI",
      "outputs": [
        {
          "internalType": "string",
          "name": "",
          "type": "string"
        }
      ],
      "stateMutability": "view",
      "type": "function"
    },
    {
      "inputs": [],
      "name": "totalSupply",
      "outputs": [
        {
          "internalType": "uint256",
          "name": "",
          "type": "uint256"
        }
      ],
      "stateMutability": "view",
      "type": "function"
    },
    {
      "inputs": [
        {
          "internalType": "address",
          "name": "from",
          "type": "address"
        },
        {
          "internalType": "address",
          "name": "to",
          "type": "address"
        },
        {
          "internalType": "uint256",
          "name": "tokenId",
          "type": "uint256"
        }
      ],
      "name": "transferFrom",
      "outputs": [],
      "stateMutability": "nonpayable",
      "type": "function"
    },
    {
      "inputs": [],
      "name": "withdraw",
      "outputs": [],
      "stateMutability": "nonpayable",
      "type": "function"
    }
  ],
  "bytecode": "0x608060405260006007556611c37937e08000600855604051806080016040528060405180604001604052806040518060400160405280600781526020017f233141414143460000000000000000000000000000000000000000000000000081525081526020016040518060400160405280600781526020017f2331423732434600000000000000000000000000000000000000000000000000815250815250815260200160405180604001604052806040518060400160405280600781526020017f234646323133350000000000000000000000000000000000000000000000000081525081526020016040518060400160405280600781526020017f2346463433323100000000000000000000000000000000000000000000000000815250815250815260200160405180604001604052806040518060400160405280600781526020017f234646453430300000000000000000000000000000000000000000000000000081525081526020016040518060400160405280600781526020017f2346464138303000000000000000000000000000000000000000000000000000815250815250815260200160405180604001604052806040518060400160405280600781526020017f233132453839350000000000000000000000000000000000000000000000000081525081526020016040518060400160405280600781526020017f2332334538313300000000000000000000000000000000000000000000000000815250815250815250600a9060046200023f9291906200042f565b5060405180608001604052806040518060400160405280600781526020017f233939353135370000000000000000000000000000000000000000000000000081525081526020016040518060400160405280600781526020017f233337354636390000000000000000000000000000000000000000000000000081525081526020016040518060400160405280600781526020017f233939393033440000000000000000000000000000000000000000000000000081525081526020016040518060400160405280600781526020017f233336344634350000000000000000000000000000000000000000000000000081525081525060129060046200034792919062000487565b503480156200035557600080fd5b506040518060400160405280600d81526020017f54455354494e472050494c4c53000000000000000000000000000000000000008152506040518060400160405280600481526020017f54503639000000000000000000000000000000000000000000000000000000008152508160009081620003d3919062000881565b508060019081620003e5919062000881565b50505033600660006101000a81548173ffffffffffffffffffffffffffffffffffffffff021916908373ffffffffffffffffffffffffffffffffffffffff16021790555062000968565b826004600202810192821562000474579160200282015b82811115620004735782518290600262000462929190620004da565b509160200191906002019062000446565b5b5090506200048391906200052d565b5090565b8260048101928215620004c7579160200282015b82811115620004c6578251829081620004b5919062000881565b50916020019190600101906200049b565b5b509050620004d6919062000555565b5090565b82600281019282156200051a579160200282015b828111156200051957825182908162000508919062000881565b5091602001919060010190620004ee565b5b50905062000529919062000555565b5090565b5b808211156200055157600081816200054791906200057d565b506002016200052e565b5090565b5b808211156200057957600081816200056f9190620005a2565b5060010162000556565b5090565b50600081816200058e9190620005a2565b506001016000620005a09190620005a2565b565b508054620005b09062000670565b6000825580601f10620005c45750620005e5565b601f016020900490600052602060002090810190620005e49190620005e8565b5b50565b5b8082111562000603576000816000905550600101620005e9565b5090565b600081519050919050565b7f4e487b7100000000000000000000000000000000000000000000000000000000600052604160045260246000fd5b7f4e487b7100000000000000000000000000000000000000000000000000000000600052602260045260246000fd5b600060028204905060018216806200068957607f821691505b6020821081036200069f576200069e62000641565b5b50919050565b60008190508160005260206000209050919050565b60006020601f8301049050919050565b600082821b905092915050565b600060088302620007097fffffffffffffffffffffffffffffffffffffffffffffffffffffffffffffffff82620006ca565b620007158683620006ca565b95508019841693508086168417925050509392505050565b6000819050919050565b6000819050919050565b6000620007626200075c62000756846200072d565b62000737565b6200072d565b9050919050565b6000819050919050565b6200077e8362000741565b620007966200078d8262000769565b848454620006d7565b825550505050565b600090565b620007ad6200079e565b620007ba81848462000773565b505050565b5b81811015620007e257620007d6600082620007a3565b600181019050620007c0565b5050565b601f8211156200083157620007fb81620006a5565b6200080684620006ba565b8101602085101562000816578190505b6200082e6200082585620006ba565b830182620007bf565b50505b505050565b600082821c905092915050565b6000620008566000198460080262000836565b1980831691505092915050565b600062000871838362000843565b9150826002028217905092915050565b6200088c8262000607565b67ffffffffffffffff811115620008a857620008a762000612565b5b620008b4825462000670565b620008c1828285620007e6565b600060209050601f831160018114620008f95760008415620008e4578287015190505b620008f0858262000863565b86555062000960565b601f1984166200090986620006a5565b60005b8281101562000933578489015182556001820191506020850194506020810190506200090c565b868310156200095357848901516200094f601f89168262000843565b8355505b6001600288020188555050505b505050505050565b61370880620009786000396000f3fe6080604052600436106101145760003560e01c806342842e0e116100a0578063a22cb46511610064578063a22cb46514610371578063b88d4fde1461039a578063c87b56dd146103c3578063e80277ae14610400578063e985e9c51461042b57610114565b806342842e0e146102785780636352211e146102a15780636817c76c146102de57806370a082311461030957806395d89b411461034657610114565b806318160ddd116100e757806318160ddd146101e757806320e409b4146102125780632173bd7b1461022e57806323b872dd146102385780633ccfd60b1461026157610114565b806301ffc9a71461011957806306fdde0314610156578063081812fc14610181578063095ea7b3146101be575b600080fd5b34801561012557600080fd5b50610140600480360381019061013b91906121b2565b610468565b60405161014d91906121fa565b60405180910390f35b34801561016257600080fd5b5061016b61054a565b60405161017891906122a5565b60405180910390f35b34801561018d57600080fd5b506101a860048036038101906101a391906122fd565b6105dc565b6040516101b5919061236b565b60405180910390f35b3480156101ca57600080fd5b506101e560048036038101906101e091906123b2565b6105f8565b005b3480156101f357600080fd5b506101fc61060e565b6040516102099190612401565b60405180910390f35b61022c600480360381019061022791906122fd565b610614565b005b6102366106dc565b005b34801561024457600080fd5b5061025f600480360381019061025a919061241c565b61077f565b005b34801561026d57600080fd5b50610276610881565b005b34801561028457600080fd5b5061029f600480360381019061029a919061241c565b610960565b005b3480156102ad57600080fd5b506102c860048036038101906102c391906122fd565b610980565b6040516102d5919061236b565b60405180910390f35b3480156102ea57600080fd5b506102f3610992565b6040516103009190612401565b60405180910390f35b34801561031557600080fd5b50610330600480360381019061032b919061246f565b610998565b60405161033d9190612401565b60405180910390f35b34801561035257600080fd5b5061035b610a52565b60405161036891906122a5565b60405180910390f35b34801561037d57600080fd5b50610398600480360381019061039391906124c8565b610ae4565b005b3480156103a657600080fd5b506103c160048036038101906103bc919061263d565b610afa565b005b3480156103cf57600080fd5b506103ea60048036038101906103e591906122fd565b610b17565b6040516103f791906122a5565b60405180910390f35b34801561040c57600080fd5b50610415610c55565b60405161042291906122a5565b60405180910390f35b34801561043757600080fd5b50610452600480360381019061044d91906126c0565b610d77565b60405161045f91906121fa565b60405180910390f35b60007f80ac58cd000000000000000000000000000000000000000000000000000000007bffffffffffffffffffffffffffffffffffffffffffffffffffffffff1916827bffffffffffffffffffffffffffffffffffffffffffffffffffffffff1916148061053357507f5b5e139f000000000000000000000000000000000000000000000000000000007bffffffffffffffffffffffffffffffffffffffffffffffffffffffff1916827bffffffffffffffffffffffffffffffffffffffffffffffffffffffff1916145b80610543575061054282610e0b565b5b9050919050565b6060600080546105599061272f565b80601f01602080910402602001604051908101604052809291908181526020018280546105859061272f565b80156105d25780601f106105a7576101008083540402835291602001916105d2565b820191906000526020600020905b8154815290600101906020018083116105b557829003601f168201915b5050505050905090565b60006105e782610e75565b506105f182610efd565b9050919050565b61060a8282610605610f3a565b610f42565b5050565b60075481565b80600854610622919061278f565b341015610664576040517f08c379a000000000000000000000000000000000000000000000000000000000815260040161065b9061281d565b60405180910390fd5b60005b818110156106d85760006001600754610680919061283d565b905061068a610c55565b6009600083815260200190815260200160002090816106a99190612a1d565b506106b43382610f54565b6007600081546106c390612aef565b91905081905550508080600101915050610667565b5050565b600854341015610721576040517f08c379a00000000000000000000000000000000000000000000000000000000081526004016107189061281d565b60405180910390fd5b60006001600754610732919061283d565b905061073c610c55565b60096000838152602001908152602001600020908161075b9190612a1d565b506107663382610f54565b60076000815461077590612aef565b9190508190555050565b600073ffffffffffffffffffffffffffffffffffffffff168273ffffffffffffffffffffffffffffffffffffffff16036107f15760006040517f64a0ae920000000000000000000000000000000000000000000000000000000081526004016107e8919061236b565b60405180910390fd5b60006108058383610800610f3a565b61104d565b90508373ffffffffffffffffffffffffffffffffffffffff168173ffffffffffffffffffffffffffffffffffffffff161461087b578382826040517f64283d7b00000000000000000000000000000000000000000000000000000000815260040161087293929190612b37565b60405180910390fd5b50505050565b600660009054906101000a900473ffffffffffffffffffffffffffffffffffffffff1673ffffffffffffffffffffffffffffffffffffffff163373ffffffffffffffffffffffffffffffffffffffff1614610911576040517f08c379a000000000000000000000000000000000000000000000000000000000815260040161090890612bba565b60405180910390fd5b60004790503373ffffffffffffffffffffffffffffffffffffffff166108fc829081150290604051600060405180830381858888f1935050505015801561095c573d6000803e3d6000fd5b5050565b61097b83838360405180602001604052806000815250610afa565b505050565b600061098b82610e75565b9050919050565b60085481565b60008073ffffffffffffffffffffffffffffffffffffffff168273ffffffffffffffffffffffffffffffffffffffff1603610a0b5760006040517f89c62b64000000000000000000000000000000000000000000000000000000008152600401610a02919061236b565b60405180910390fd5b600360008373ffffffffffffffffffffffffffffffffffffffff1673ffffffffffffffffffffffffffffffffffffffff168152602001908152602001600020549050919050565b606060018054610a619061272f565b80601f0160208091040260200160405190810160405280929190818152602001828054610a8d9061272f565b8015610ada5780601f10610aaf57610100808354040283529160200191610ada565b820191906000526020600020905b815481529060010190602001808311610abd57829003601f168201915b5050505050905090565b610af6610aef610f3a565b8383611267565b5050565b610b0584848461077f565b610b11848484846113d6565b50505050565b6060600073ffffffffffffffffffffffffffffffffffffffff16610b3a8361158d565b73ffffffffffffffffffffffffffffffffffffffff1603610b5a57600080fd5b610c2f610b66836115ca565b610c0a600960008681526020019081526020016000208054610b879061272f565b80601f0160208091040260200160405190810160405280929190818152602001828054610bb39061272f565b8015610c005780601f10610bd557610100808354040283529160200191610c00565b820191906000526020600020905b815481529060010190602001808311610be357829003601f168201915b5050505050611752565b604051602001610c1b929190612d46565b604051602081830303815290604052611752565b604051602001610c3f9190612dd7565b6040516020818303038152906040529050919050565b60606000610c616118c4565b9050600081600460058110610c7957610c78612df9565b5b602002015182600060058110610c9257610c91612df9565b5b602002015183600260058110610cab57610caa612df9565b5b602002015184600060058110610cc457610cc3612df9565b5b602002015185600260058110610cdd57610cdc612df9565b5b602002015186600160058110610cf657610cf5612df9565b5b602002015187600360058110610d0f57610d0e612df9565b5b602002015188600160058110610d2857610d27612df9565b5b602002015189600360058110610d4157610d40612df9565b5b6020020151604051602001610d5e999897969594939291906132e8565b6040516020818303038152906040529050809250505090565b6000600560008473ffffffffffffffffffffffffffffffffffffffff1673ffffffffffffffffffffffffffffffffffffffff16815260200190815260200160002060008373ffffffffffffffffffffffffffffffffffffffff1673ffffffffffffffffffffffffffffffffffffffff16815260200190815260200160002060009054906101000a900460ff16905092915050565b60007f01ffc9a7000000000000000000000000000000000000000000000000000000007bffffffffffffffffffffffffffffffffffffffffffffffffffffffff1916827bffffffffffffffffffffffffffffffffffffffffffffffffffffffff1916149050919050565b600080610e818361158d565b9050600073ffffffffffffffffffffffffffffffffffffffff168173ffffffffffffffffffffffffffffffffffffffff1603610ef457826040517f7e273289000000000000000000000000000000000000000000000000000000008152600401610eeb9190612401565b60405180910390fd5b80915050919050565b60006004600083815260200190815260200160002060009054906101000a900473ffffffffffffffffffffffffffffffffffffffff169050919050565b600033905090565b610f4f8383836001611d08565b505050565b600073ffffffffffffffffffffffffffffffffffffffff168273ffffffffffffffffffffffffffffffffffffffff1603610fc65760006040517f64a0ae92000000000000000000000000000000000000000000000000000000008152600401610fbd919061236b565b60405180910390fd5b6000610fd48383600061104d565b9050600073ffffffffffffffffffffffffffffffffffffffff168173ffffffffffffffffffffffffffffffffffffffff16146110485760006040517f73c6ac6e00000000000000000000000000000000000000000000000000000000815260040161103f919061236b565b60405180910390fd5b505050565b6000806110598461158d565b9050600073ffffffffffffffffffffffffffffffffffffffff168373ffffffffffffffffffffffffffffffffffffffff161461109b5761109a818486611ecd565b5b600073ffffffffffffffffffffffffffffffffffffffff168173ffffffffffffffffffffffffffffffffffffffff161461112c576110dd600085600080611d08565b6001600360008373ffffffffffffffffffffffffffffffffffffffff1673ffffffffffffffffffffffffffffffffffffffff168152602001908152602001600020600082825403925050819055505b600073ffffffffffffffffffffffffffffffffffffffff168573ffffffffffffffffffffffffffffffffffffffff16146111af576001600360008773ffffffffffffffffffffffffffffffffffffffff1673ffffffffffffffffffffffffffffffffffffffff168152602001908152602001600020600082825401925050819055505b846002600086815260200190815260200160002060006101000a81548173ffffffffffffffffffffffffffffffffffffffff021916908373ffffffffffffffffffffffffffffffffffffffff160217905550838573ffffffffffffffffffffffffffffffffffffffff168273ffffffffffffffffffffffffffffffffffffffff167fddf252ad1be2c89b69c2b068fc378daa952ba7f163c4a11628f55a4df523b3ef60405160405180910390a4809150509392505050565b600073ffffffffffffffffffffffffffffffffffffffff168273ffffffffffffffffffffffffffffffffffffffff16036112d857816040517f5b08ba180000000000000000000000000000000000000000000000000000000081526004016112cf919061236b565b60405180910390fd5b80600560008573ffffffffffffffffffffffffffffffffffffffff1673ffffffffffffffffffffffffffffffffffffffff16815260200190815260200160002060008473ffffffffffffffffffffffffffffffffffffffff1673ffffffffffffffffffffffffffffffffffffffff16815260200190815260200160002060006101000a81548160ff0219169083151502179055508173ffffffffffffffffffffffffffffffffffffffff168373ffffffffffffffffffffffffffffffffffffffff167f17307eab39ab6107e8899845ad3d59bd9653f200f220920489ca2b5937696c31836040516113c991906121fa565b60405180910390a3505050565b60008373ffffffffffffffffffffffffffffffffffffffff163b1115611587578273ffffffffffffffffffffffffffffffffffffffff1663150b7a0261141a610f3a565b8685856040518563ffffffff1660e01b815260040161143c949392919061342e565b6020604051808303816000875af192505050801561147857506040513d601f19601f82011682018060405250810190611475919061348f565b60015b6114fc573d80600081146114a8576040519150601f19603f3d011682016040523d82523d6000602084013e6114ad565b606091505b5060008151036114f457836040517f64a0ae920000000000000000000000000000000000000000000000000000000081526004016114eb919061236b565b60405180910390fd5b805181602001fd5b63150b7a0260e01b7bffffffffffffffffffffffffffffffffffffffffffffffffffffffff1916817bffffffffffffffffffffffffffffffffffffffffffffffffffffffff19161461158557836040517f64a0ae9200000000000000000000000000000000000000000000000000000000815260040161157c919061236b565b60405180910390fd5b505b50505050565b60006002600083815260200190815260200160002060009054906101000a900473ffffffffffffffffffffffffffffffffffffffff169050919050565b606060008203611611576040518060400160405280600181526020017f3000000000000000000000000000000000000000000000000000000000000000815250905061174d565b600082905060005b6000821461164357808061162c90612aef565b915050600a8261163c91906134eb565b9150611619565b60008167ffffffffffffffff81111561165f5761165e612512565b5b6040519080825280601f01601f1916602001820160405280156116915781602001600182028036833780820191505090505b50905060008290505b60008614611745576001816116af919061351c565b90506000600a80886116c191906134eb565b6116cb919061278f565b876116d6919061351c565b60306116e2919061355d565b905060008160f81b905080848481518110611700576116ff612df9565b5b60200101907effffffffffffffffffffffffffffffffffffffffffffffffffffffffffffff1916908160001a905350600a8861173c91906134eb565b9750505061169a565b819450505050505b919050565b60606000825103611774576040518060200160405280600081525090506118bf565b600060405180606001604052806040815260200161369360409139905060006003600285516117a3919061283d565b6117ad91906134eb565b60046117b9919061278f565b67ffffffffffffffff8111156117d2576117d1612512565b5b6040519080825280601f01601f1916602001820160405280156118045781602001600182028036833780820191505090505b50905060018201602082018586518701602081018051600082525b8284101561187a576003840193508351603f8160121c168701518653600186019550603f81600c1c168701518653600186019550603f8160061c168701518653600186019550603f811687015186536001860195505061181f565b80825260038a51066001811461189757600281146118aa576118b2565b603d6001870353603d60028703536118b2565b603d60018703535b5050505050505080925050505b919050565b6118cc6120fd565b60006118d6611f91565b90506000816000600581106118ee576118ed612df9565b5b6020020151905060008260016005811061190b5761190a612df9565b5b6020020151905060008360026005811061192857611927612df9565b5b6020020151905060008460036005811061194557611944612df9565b5b6020020151905060008560046005811061196257611961612df9565b5b602002015190506000600a866004811061197f5761197e612df9565b5b60020201600280602002604051908101604052809291906000905b82821015611a3d5783820180546119b09061272f565b80601f01602080910402602001604051908101604052809291908181526020018280546119dc9061272f565b8015611a295780601f106119fe57610100808354040283529160200191611a29565b820191906000526020600020905b815481529060010190602001808311611a0c57829003601f168201915b50505050508152602001906001019061199a565b5050505090506000600a8660048110611a5957611a58612df9565b5b60020201600280602002604051908101604052809291906000905b82821015611b17578382018054611a8a9061272f565b80601f0160208091040260200160405190810160405280929190818152602001828054611ab69061272f565b8015611b035780601f10611ad857610100808354040283529160200191611b03565b820191906000526020600020905b815481529060010190602001808311611ae657829003601f168201915b505050505081526020019060010190611a74565b505050509050600060018514611b455782600060028110611b3b57611b3a612df9565b5b6020020151611b5f565b82600160028110611b5957611b58612df9565b5b60200201515b9050600060018614611b895783600160028110611b7f57611b7e612df9565b5b6020020151611ba3565b83600060028110611b9d57611b9c612df9565b5b60200201515b9050600060018614611bcd5783600060028110611bc357611bc2612df9565b5b6020020151611be7565b83600160028110611be157611be0612df9565b5b60200201515b9050600060018714611c115784600160028110611c0757611c06612df9565b5b6020020151611c2b565b84600060028110611c2557611c24612df9565b5b60200201515b9050600060128a60048110611c4357611c42612df9565b5b018054611c4f9061272f565b80601f0160208091040260200160405190810160405280929190818152602001828054611c7b9061272f565b8015611cc85780601f10611c9d57610100808354040283529160200191611cc8565b820191906000526020600020905b815481529060010190602001808311611cab57829003601f168201915b505050505090506040518060a00160405280868152602001858152602001848152602001838152602001828152509d505050505050505050505050505090565b8080611d415750600073ffffffffffffffffffffffffffffffffffffffff168273ffffffffffffffffffffffffffffffffffffffff1614155b15611e75576000611d5184610e75565b9050600073ffffffffffffffffffffffffffffffffffffffff168373ffffffffffffffffffffffffffffffffffffffff1614158015611dbc57508273ffffffffffffffffffffffffffffffffffffffff168173ffffffffffffffffffffffffffffffffffffffff1614155b8015611dcf5750611dcd8184610d77565b155b15611e1157826040517fa9fbf51f000000000000000000000000000000000000000000000000000000008152600401611e08919061236b565b60405180910390fd5b8115611e7357838573ffffffffffffffffffffffffffffffffffffffff168273ffffffffffffffffffffffffffffffffffffffff167f8c5be1e5ebec7d5bd14f71427d1e84f3dd0314c0f7b2291e5b200ac8c7c3b92560405160405180910390a45b505b836004600085815260200190815260200160002060006101000a81548173ffffffffffffffffffffffffffffffffffffffff021916908373ffffffffffffffffffffffffffffffffffffffff16021790555050505050565b611ed883838361203c565b611f8c57600073ffffffffffffffffffffffffffffffffffffffff168373ffffffffffffffffffffffffffffffffffffffff1603611f4d57806040517f7e273289000000000000000000000000000000000000000000000000000000008152600401611f449190612401565b60405180910390fd5b81816040517f177e802f000000000000000000000000000000000000000000000000000000008152600401611f83929190613592565b60405180910390fd5b505050565b611f99612124565b611fa1612124565b600080600090505b600581101561203357423382604051602001611fc793929190613624565b6040516020818303038152906040528051906020012060001c915060038110611ffc57600282611ff79190613661565b61200a565b6004826120099190613661565b5b83826005811061201d5761201c612df9565b5b6020020181815250508080600101915050611fa9565b50819250505090565b60008073ffffffffffffffffffffffffffffffffffffffff168373ffffffffffffffffffffffffffffffffffffffff16141580156120f457508273ffffffffffffffffffffffffffffffffffffffff168473ffffffffffffffffffffffffffffffffffffffff1614806120b557506120b48484610d77565b5b806120f357508273ffffffffffffffffffffffffffffffffffffffff166120db83610efd565b73ffffffffffffffffffffffffffffffffffffffff16145b5b90509392505050565b6040518060a001604052806005905b606081526020019060019003908161210c5790505090565b6040518060a00160405280600590602082028036833780820191505090505090565b6000604051905090565b600080fd5b600080fd5b60007fffffffff0000000000000000000000000000000000000000000000000000000082169050919050565b61218f8161215a565b811461219a57600080fd5b50565b6000813590506121ac81612186565b92915050565b6000602082840312156121c8576121c7612150565b5b60006121d68482850161219d565b91505092915050565b60008115159050919050565b6121f4816121df565b82525050565b600060208201905061220f60008301846121eb565b92915050565b600081519050919050565b600082825260208201905092915050565b60005b8381101561224f578082015181840152602081019050612234565b60008484015250505050565b6000601f19601f8301169050919050565b600061227782612215565b6122818185612220565b9350612291818560208601612231565b61229a8161225b565b840191505092915050565b600060208201905081810360008301526122bf818461226c565b905092915050565b6000819050919050565b6122da816122c7565b81146122e557600080fd5b50565b6000813590506122f7816122d1565b92915050565b60006020828403121561231357612312612150565b5b6000612321848285016122e8565b91505092915050565b600073ffffffffffffffffffffffffffffffffffffffff82169050919050565b60006123558261232a565b9050919050565b6123658161234a565b82525050565b6000602082019050612380600083018461235c565b92915050565b61238f8161234a565b811461239a57600080fd5b50565b6000813590506123ac81612386565b92915050565b600080604083850312156123c9576123c8612150565b5b60006123d78582860161239d565b92505060206123e8858286016122e8565b9150509250929050565b6123fb816122c7565b82525050565b600060208201905061241660008301846123f2565b92915050565b60008060006060848603121561243557612434612150565b5b60006124438682870161239d565b93505060206124548682870161239d565b9250506040612465868287016122e8565b9150509250925092565b60006020828403121561248557612484612150565b5b60006124938482850161239d565b91505092915050565b6124a5816121df565b81146124b057600080fd5b50565b6000813590506124c28161249c565b92915050565b600080604083850312156124df576124de612150565b5b60006124ed8582860161239d565b92505060206124fe858286016124b3565b9150509250929050565b600080fd5b600080fd5b7f4e487b7100000000000000000000000000000000000000000000000000000000600052604160045260246000fd5b61254a8261225b565b810181811067ffffffffffffffff8211171561256957612568612512565b5b80604052505050565b600061257c612146565b90506125888282612541565b919050565b600067ffffffffffffffff8211156125a8576125a7612512565b5b6125b18261225b565b9050602081019050919050565b82818337600083830152505050565b60006125e06125db8461258d565b612572565b9050828152602081018484840111156125fc576125fb61250d565b5b6126078482856125be565b509392505050565b600082601f83011261262457612623612508565b5b81356126348482602086016125cd565b91505092915050565b6000806000806080858703121561265757612656612150565b5b60006126658782880161239d565b94505060206126768782880161239d565b9350506040612687878288016122e8565b925050606085013567ffffffffffffffff8111156126a8576126a7612155565b5b6126b48782880161260f565b91505092959194509250565b600080604083850312156126d7576126d6612150565b5b60006126e58582860161239d565b92505060206126f68582860161239d565b9150509250929050565b7f4e487b7100000000000000000000000000000000000000000000000000000000600052602260045260246000fd5b6000600282049050600182168061274757607f821691505b60208210810361275a57612759612700565b5b50919050565b7f4e487b7100000000000000000000000000000000000000000000000000000000600052601160045260246000fd5b600061279a826122c7565b91506127a5836122c7565b92508282026127b3816122c7565b915082820484148315176127ca576127c9612760565b5b5092915050565b7f4e6f7420656e6f756768204554482073656e7400000000000000000000000000600082015250565b6000612807601383612220565b9150612812826127d1565b602082019050919050565b60006020820190508181036000830152612836816127fa565b9050919050565b6000612848826122c7565b9150612853836122c7565b925082820190508082111561286b5761286a612760565b5b92915050565b60008190508160005260206000209050919050565b60006020601f8301049050919050565b600082821b905092915050565b6000600883026128d37fffffffffffffffffffffffffffffffffffffffffffffffffffffffffffffffff82612896565b6128dd8683612896565b95508019841693508086168417925050509392505050565b6000819050919050565b600061291a612915612910846122c7565b6128f5565b6122c7565b9050919050565b6000819050919050565b612934836128ff565b61294861294082612921565b8484546128a3565b825550505050565b600090565b61295d612950565b61296881848461292b565b505050565b5b8181101561298c57612981600082612955565b60018101905061296e565b5050565b601f8211156129d1576129a281612871565b6129ab84612886565b810160208510156129ba578190505b6129ce6129c685612886565b83018261296d565b50505b505050565b600082821c905092915050565b60006129f4600019846008026129d6565b1980831691505092915050565b6000612a0d83836129e3565b9150826002028217905092915050565b612a2682612215565b67ffffffffffffffff811115612a3f57612a3e612512565b5b612a49825461272f565b612a54828285612990565b600060209050601f831160018114612a875760008415612a75578287015190505b612a7f8582612a01565b865550612ae7565b601f198416612a9586612871565b60005b82811015612abd57848901518255600182019150602085019450602081019050612a98565b86831015612ada5784890151612ad6601f8916826129e3565b8355505b6001600288020188555050505b505050505050565b6000612afa826122c7565b91507fffffffffffffffffffffffffffffffffffffffffffffffffffffffffffffffff8203612b2c57612b2b612760565b5b600182019050919050565b6000606082019050612b4c600083018661235c565b612b5960208301856123f2565b612b66604083018461235c565b949350505050565b7f6f6e6c79206f776e657200000000000000000000000000000000000000000000600082015250565b6000612ba4600a83612220565b9150612baf82612b6e565b602082019050919050565b60006020820190508181036000830152612bd381612b97565b9050919050565b600081905092915050565b7f7b226e616d65223a202250696c6c732023000000000000000000000000000000600082015250565b6000612c1b601183612bda565b9150612c2682612be5565b601182019050919050565b6000612c3c82612215565b612c468185612bda565b9350612c56818560208601612231565b80840191505092915050565b7f222c20226465736372697074696f6e223a202243686561702050696c6c73222c60008201527f202261747472696275746573223a2022222c2022696d616765223a226461746160208201527f3a696d6167652f7376672b786d6c3b6261736536342c00000000000000000000604082015250565b6000612ce4605683612bda565b9150612cef82612c62565b605682019050919050565b7f227d000000000000000000000000000000000000000000000000000000000000600082015250565b6000612d30600283612bda565b9150612d3b82612cfa565b600282019050919050565b6000612d5182612c0e565b9150612d5d8285612c31565b9150612d6882612cd7565b9150612d748284612c31565b9150612d7f82612d23565b91508190509392505050565b7f646174613a6170706c69636174696f6e2f6a736f6e3b6261736536342c000000600082015250565b6000612dc1601d83612bda565b9150612dcc82612d8b565b601d82019050919050565b6000612de282612db4565b9150612dee8284612c31565b915081905092915050565b7f4e487b7100000000000000000000000000000000000000000000000000000000600052603260045260246000fd5b7f3c3f786d6c2076657273696f6e3d22312e302220656e636f64696e673d22555460008201527f462d38223f3e3c7376672077696474683d2237323022206865696768743d223760208201527f3230222076657273696f6e3d22312e31222076696577426f783d22302030203360408201527f3630203336302220786d6c6e733d22687474703a2f2f7777772e77332e6f726760608201527f2f323030302f737667223e3c673e3c726563742077696474683d22313030252260808201527f206865696768743d2231303025222066696c6c3d22000000000000000000000060a082015250565b6000612f1c60b583612bda565b9150612f2782612e28565b60b582019050919050565b7f222f3e3c636972636c652063783d223137322e35222063793d2239372e35222060008201527f723d2235322e35222066696c6c3d220000000000000000000000000000000000602082015250565b6000612f8e602f83612bda565b9150612f9982612f32565b602f82019050919050565b7f222f3e3c636972636c652063783d223137322e35222063793d223236322e352260008201527f20723d2235322e35222066696c6c3d2200000000000000000000000000000000602082015250565b6000613000603083612bda565b915061300b82612fa4565b603082019050919050565b7f222f3e3c7265637420783d223132302220793d2239372e35222077696474683d60008201527f2231303522206865696768743d2238322e35222066696c6c3d22000000000000602082015250565b6000613072603a83612bda565b915061307d82613016565b603a82019050919050565b7f222f3e3c7265637420783d223132302220793d22313830222077696474683d2260008201527f31303522206865696768743d2238322e35222066696c6c3d2200000000000000602082015250565b60006130e4603983612bda565b91506130ef82613088565b603982019050919050565b7f222f3e3c636972636c652063783d223136382e3735222063793d2239332e373560008201527f2220723d2234382e3735222066696c6c3d220000000000000000000000000000602082015250565b6000613156603283612bda565b9150613161826130fa565b603282019050919050565b7f222f3e3c636972636c652063783d223136382e3735222063793d223236362e3260008201527f352220723d2234382e3735222066696c6c3d2200000000000000000000000000602082015250565b60006131c8603383612bda565b91506131d38261316c565b603382019050919050565b7f222f3e3c7265637420783d223132302220793d2239372e35222077696474683d60008201527f2239372e3522206865696768743d2238322e35222066696c6c3d220000000000602082015250565b600061323a603b83612bda565b9150613245826131de565b603b82019050919050565b7f222f3e3c7265637420783d223132302220793d22313830222077696474683d2260008201527f39372e3522206865696768743d2238322e35222066696c6c3d22000000000000602082015250565b60006132ac603a83612bda565b91506132b782613250565b603a82019050919050565b7f222f3e3c2f673e3c2f7376673e00000000000000000000000000000000000000815250565b60006132f382612f0f565b91506132ff828c612c31565b915061330a82612f81565b9150613316828b612c31565b915061332182612ff3565b915061332d828a612c31565b915061333882613065565b91506133448289612c31565b915061334f826130d7565b915061335b8288612c31565b915061336682613149565b91506133728287612c31565b915061337d826131bb565b91506133898286612c31565b91506133948261322d565b91506133a08285612c31565b91506133ab8261329f565b91506133b78284612c31565b91506133c2826132c2565b600d820191508190509a9950505050505050505050565b600081519050919050565b600082825260208201905092915050565b6000613400826133d9565b61340a81856133e4565b935061341a818560208601612231565b6134238161225b565b840191505092915050565b6000608082019050613443600083018761235c565b613450602083018661235c565b61345d60408301856123f2565b818103606083015261346f81846133f5565b905095945050505050565b60008151905061348981612186565b92915050565b6000602082840312156134a5576134a4612150565b5b60006134b38482850161347a565b91505092915050565b7f4e487b7100000000000000000000000000000000000000000000000000000000600052601260045260246000fd5b60006134f6826122c7565b9150613501836122c7565b925082613511576135106134bc565b5b828204905092915050565b6000613527826122c7565b9150613532836122c7565b925082820390508181111561354a57613549612760565b5b92915050565b600060ff82169050919050565b600061356882613550565b915061357383613550565b9250828201905060ff81111561358c5761358b612760565b5b92915050565b60006040820190506135a7600083018561235c565b6135b460208301846123f2565b9392505050565b6000819050919050565b6135d66135d1826122c7565b6135bb565b82525050565b60008160601b9050919050565b60006135f4826135dc565b9050919050565b6000613606826135e9565b9050919050565b61361e6136198261234a565b6135fb565b82525050565b600061363082866135c5565b602082019150613640828561360d565b60148201915061365082846135c5565b602082019150819050949350505050565b600061366c826122c7565b9150613677836122c7565b925082613687576136866134bc565b5b82820690509291505056fe4142434445464748494a4b4c4d4e4f505152535455565758595a6162636465666768696a6b6c6d6e6f707172737475767778797a303132333435363738392b2fa2646970667358221220a219876fa6c85ee3f73a096350a45660d36febaef54bc2000a57a19c82e4f50f64736f6c63430008180033",
  "linkReferences": {},
  "deployedLinkReferences": {}
}