{
  "_format": "hh-sol-artifact-1",
  "contractName": "Pills",
  "sourceName": "contracts/Pills.sol",
  "abi": [
    {
      "inputs": [],
      "stateMutability": "nonpayable",
      "type": "constructor"
    },
    {
      "inputs": [
        {
          "internalType": "address",
          "name": "sender",
          "type": "address"
        },
        {
          "internalType": "uint256",
          "name": "tokenId",
          "type": "uint256"
        },
        {
          "internalType": "address",
          "name": "owner",
          "type": "address"
        }
      ],
      "name": "ERC721IncorrectOwner",
      "type": "error"
    },
    {
      "inputs": [
        {
          "internalType": "address",
          "name": "operator",
          "type": "address"
        },
        {
          "internalType": "uint256",
          "name": "tokenId",
          "type": "uint256"
        }
      ],
      "name": "ERC721InsufficientApproval",
      "type": "error"
    },
    {
      "inputs": [
        {
          "internalType": "address",
          "name": "approver",
          "type": "address"
        }
      ],
      "name": "ERC721InvalidApprover",
      "type": "error"
    },
    {
      "inputs": [
        {
          "internalType": "address",
          "name": "operator",
          "type": "address"
        }
      ],
      "name": "ERC721InvalidOperator",
      "type": "error"
    },
    {
      "inputs": [
        {
          "internalType": "address",
          "name": "owner",
          "type": "address"
        }
      ],
      "name": "ERC721InvalidOwner",
      "type": "error"
    },
    {
      "inputs": [
        {
          "internalType": "address",
          "name": "receiver",
          "type": "address"
        }
      ],
      "name": "ERC721InvalidReceiver",
      "type": "error"
    },
    {
      "inputs": [
        {
          "internalType": "address",
          "name": "sender",
          "type": "address"
        }
      ],
      "name": "ERC721InvalidSender",
      "type": "error"
    },
    {
      "inputs": [
        {
          "internalType": "uint256",
          "name": "tokenId",
          "type": "uint256"
        }
      ],
      "name": "ERC721NonexistentToken",
      "type": "error"
    },
    {
      "anonymous": false,
      "inputs": [
        {
          "indexed": true,
          "internalType": "address",
          "name": "owner",
          "type": "address"
        },
        {
          "indexed": true,
          "internalType": "address",
          "name": "approved",
          "type": "address"
        },
        {
          "indexed": true,
          "internalType": "uint256",
          "name": "tokenId",
          "type": "uint256"
        }
      ],
      "name": "Approval",
      "type": "event"
    },
    {
      "anonymous": false,
      "inputs": [
        {
          "indexed": true,
          "internalType": "address",
          "name": "owner",
          "type": "address"
        },
        {
          "indexed": true,
          "internalType": "address",
          "name": "operator",
          "type": "address"
        },
        {
          "indexed": false,
          "internalType": "bool",
          "name": "approved",
          "type": "bool"
        }
      ],
      "name": "ApprovalForAll",
      "type": "event"
    },
    {
      "anonymous": false,
      "inputs": [
        {
          "indexed": true,
          "internalType": "address",
          "name": "from",
          "type": "address"
        },
        {
          "indexed": true,
          "internalType": "address",
          "name": "to",
          "type": "address"
        },
        {
          "indexed": true,
          "internalType": "uint256",
          "name": "tokenId",
          "type": "uint256"
        }
      ],
      "name": "Transfer",
      "type": "event"
    },
    {
      "inputs": [
        {
          "internalType": "address",
          "name": "to",
          "type": "address"
        },
        {
          "internalType": "uint256",
          "name": "tokenId",
          "type": "uint256"
        }
      ],
      "name": "approve",
      "outputs": [],
      "stateMutability": "nonpayable",
      "type": "function"
    },
    {
      "inputs": [
        {
          "internalType": "address",
          "name": "owner",
          "type": "address"
        }
      ],
      "name": "balanceOf",
      "outputs": [
        {
          "internalType": "uint256",
          "name": "",
          "type": "uint256"
        }
      ],
      "stateMutability": "view",
      "type": "function"
    },
    {
      "inputs": [
        {
          "internalType": "uint256",
          "name": "_tokenId",
          "type": "uint256"
        }
      ],
      "name": "generateFinalSvg",
      "outputs": [
        {
          "internalType": "string",
          "name": "",
          "type": "string"
        }
      ],
      "stateMutability": "view",
      "type": "function"
    },
    {
      "inputs": [
        {
          "internalType": "uint256",
          "name": "tokenId",
          "type": "uint256"
        }
      ],
      "name": "getApproved",
      "outputs": [
        {
          "internalType": "address",
          "name": "",
          "type": "address"
        }
      ],
      "stateMutability": "view",
      "type": "function"
    },
    {
      "inputs": [
        {
          "internalType": "address",
          "name": "owner",
          "type": "address"
        },
        {
          "internalType": "address",
          "name": "operator",
          "type": "address"
        }
      ],
      "name": "isApprovedForAll",
      "outputs": [
        {
          "internalType": "bool",
          "name": "",
          "type": "bool"
        }
      ],
      "stateMutability": "view",
      "type": "function"
    },
    {
      "inputs": [
        {
          "internalType": "uint256",
          "name": "numberOfTokens",
          "type": "uint256"
        }
      ],
      "name": "mintBatch",
      "outputs": [],
      "stateMutability": "payable",
      "type": "function"
    },
    {
      "inputs": [],
      "name": "mintPill",
      "outputs": [],
      "stateMutability": "payable",
      "type": "function"
    },
    {
      "inputs": [],
      "name": "mintPrice",
      "outputs": [
        {
          "internalType": "uint256",
          "name": "",
          "type": "uint256"
        }
      ],
      "stateMutability": "view",
      "type": "function"
    },
    {
      "inputs": [],
      "name": "name",
      "outputs": [
        {
          "internalType": "string",
          "name": "",
          "type": "string"
        }
      ],
      "stateMutability": "view",
      "type": "function"
    },
    {
      "inputs": [
        {
          "internalType": "uint256",
          "name": "tokenId",
          "type": "uint256"
        }
      ],
      "name": "ownerOf",
      "outputs": [
        {
          "internalType": "address",
          "name": "",
          "type": "address"
        }
      ],
      "stateMutability": "view",
      "type": "function"
    },
    {
      "inputs": [
        {
          "internalType": "address",
          "name": "from",
          "type": "address"
        },
        {
          "internalType": "address",
          "name": "to",
          "type": "address"
        },
        {
          "internalType": "uint256",
          "name": "tokenId",
          "type": "uint256"
        }
      ],
      "name": "safeTransferFrom",
      "outputs": [],
      "stateMutability": "nonpayable",
      "type": "function"
    },
    {
      "inputs": [
        {
          "internalType": "address",
          "name": "from",
          "type": "address"
        },
        {
          "internalType": "address",
          "name": "to",
          "type": "address"
        },
        {
          "internalType": "uint256",
          "name": "tokenId",
          "type": "uint256"
        },
        {
          "internalType": "bytes",
          "name": "data",
          "type": "bytes"
        }
      ],
      "name": "safeTransferFrom",
      "outputs": [],
      "stateMutability": "nonpayable",
      "type": "function"
    },
    {
      "inputs": [
        {
          "internalType": "address",
          "name": "operator",
          "type": "address"
        },
        {
          "internalType": "bool",
          "name": "approved",
          "type": "bool"
        }
      ],
      "name": "setApprovalForAll",
      "outputs": [],
      "stateMutability": "nonpayable",
      "type": "function"
    },
    {
      "inputs": [
        {
          "internalType": "bytes4",
          "name": "interfaceId",
          "type": "bytes4"
        }
      ],
      "name": "supportsInterface",
      "outputs": [
        {
          "internalType": "bool",
          "name": "",
          "type": "bool"
        }
      ],
      "stateMutability": "view",
      "type": "function"
    },
    {
      "inputs": [],
      "name": "symbol",
      "outputs": [
        {
          "internalType": "string",
          "name": "",
          "type": "string"
        }
      ],
      "stateMutability": "view",
      "type": "function"
    },
    {
      "inputs": [
        {
          "internalType": "uint256",
          "name": "tokenId",
          "type": "uint256"
        }
      ],
      "name": "tokenURI",
      "outputs": [
        {
          "internalType": "string",
          "name": "",
          "type": "string"
        }
      ],
      "stateMutability": "view",
      "type": "function"
    },
    {
      "inputs": [],
      "name": "totalSupply",
      "outputs": [
        {
          "internalType": "uint256",
          "name": "",
          "type": "uint256"
        }
      ],
      "stateMutability": "view",
      "type": "function"
    },
    {
      "inputs": [
        {
          "internalType": "address",
          "name": "from",
          "type": "address"
        },
        {
          "internalType": "address",
          "name": "to",
          "type": "address"
        },
        {
          "internalType": "uint256",
          "name": "tokenId",
          "type": "uint256"
        }
      ],
      "name": "transferFrom",
      "outputs": [],
      "stateMutability": "nonpayable",
      "type": "function"
    },
    {
      "inputs": [],
      "name": "withdraw",
      "outputs": [],
      "stateMutability": "nonpayable",
      "type": "function"
    }
  ],
  "bytecode": "0x608060405260006007556611c37937e08000600855604051806080016040528060405180604001604052806040518060400160405280600781526020017f233141414143460000000000000000000000000000000000000000000000000081525081526020016040518060400160405280600781526020017f2331423732434600000000000000000000000000000000000000000000000000815250815250815260200160405180604001604052806040518060400160405280600781526020017f234646323133350000000000000000000000000000000000000000000000000081525081526020016040518060400160405280600781526020017f2346463433323100000000000000000000000000000000000000000000000000815250815250815260200160405180604001604052806040518060400160405280600781526020017f234646453430300000000000000000000000000000000000000000000000000081525081526020016040518060400160405280600781526020017f2346464138303000000000000000000000000000000000000000000000000000815250815250815260200160405180604001604052806040518060400160405280600781526020017f233132453839350000000000000000000000000000000000000000000000000081525081526020016040518060400160405280600781526020017f2332334538313300000000000000000000000000000000000000000000000000815250815250815250600a9060046200023f9291906200042f565b5060405180608001604052806040518060400160405280600781526020017f233939353135370000000000000000000000000000000000000000000000000081525081526020016040518060400160405280600781526020017f233337354636390000000000000000000000000000000000000000000000000081525081526020016040518060400160405280600781526020017f233939393033440000000000000000000000000000000000000000000000000081525081526020016040518060400160405280600781526020017f233336344634350000000000000000000000000000000000000000000000000081525081525060129060046200034792919062000487565b503480156200035557600080fd5b506040518060400160405280600d81526020017f54455354494e472050494c4c53000000000000000000000000000000000000008152506040518060400160405280600481526020017f54503639000000000000000000000000000000000000000000000000000000008152508160009081620003d3919062000881565b508060019081620003e5919062000881565b50505033600660006101000a81548173ffffffffffffffffffffffffffffffffffffffff021916908373ffffffffffffffffffffffffffffffffffffffff16021790555062000968565b826004600202810192821562000474579160200282015b82811115620004735782518290600262000462929190620004da565b509160200191906002019062000446565b5b5090506200048391906200052d565b5090565b8260048101928215620004c7579160200282015b82811115620004c6578251829081620004b5919062000881565b50916020019190600101906200049b565b5b509050620004d6919062000555565b5090565b82600281019282156200051a579160200282015b828111156200051957825182908162000508919062000881565b5091602001919060010190620004ee565b5b50905062000529919062000555565b5090565b5b808211156200055157600081816200054791906200057d565b506002016200052e565b5090565b5b808211156200057957600081816200056f9190620005a2565b5060010162000556565b5090565b50600081816200058e9190620005a2565b506001016000620005a09190620005a2565b565b508054620005b09062000670565b6000825580601f10620005c45750620005e5565b601f016020900490600052602060002090810190620005e49190620005e8565b5b50565b5b8082111562000603576000816000905550600101620005e9565b5090565b600081519050919050565b7f4e487b7100000000000000000000000000000000000000000000000000000000600052604160045260246000fd5b7f4e487b7100000000000000000000000000000000000000000000000000000000600052602260045260246000fd5b600060028204905060018216806200068957607f821691505b6020821081036200069f576200069e62000641565b5b50919050565b60008190508160005260206000209050919050565b60006020601f8301049050919050565b600082821b905092915050565b600060088302620007097fffffffffffffffffffffffffffffffffffffffffffffffffffffffffffffffff82620006ca565b620007158683620006ca565b95508019841693508086168417925050509392505050565b6000819050919050565b6000819050919050565b6000620007626200075c62000756846200072d565b62000737565b6200072d565b9050919050565b6000819050919050565b6200077e8362000741565b620007966200078d8262000769565b848454620006d7565b825550505050565b600090565b620007ad6200079e565b620007ba81848462000773565b505050565b5b81811015620007e257620007d6600082620007a3565b600181019050620007c0565b5050565b601f8211156200083157620007fb81620006a5565b6200080684620006ba565b8101602085101562000816578190505b6200082e6200082585620006ba565b830182620007bf565b50505b505050565b600082821c905092915050565b6000620008566000198460080262000836565b1980831691505092915050565b600062000871838362000843565b9150826002028217905092915050565b6200088c8262000607565b67ffffffffffffffff811115620008a857620008a762000612565b5b620008b4825462000670565b620008c1828285620007e6565b600060209050601f831160018114620008f95760008415620008e4578287015190505b620008f0858262000863565b86555062000960565b601f1984166200090986620006a5565b60005b8281101562000933578489015182556001820191506020850194506020810190506200090c565b868310156200095357848901516200094f601f89168262000843565b8355505b6001600288020188555050505b505050505050565b61373780620009786000396000f3fe6080604052600436106101145760003560e01c806342842e0e116100a0578063a22cb46511610064578063a22cb46514610371578063abe231ac1461039a578063b88d4fde146103d7578063c87b56dd14610400578063e985e9c51461043d57610114565b806342842e0e146102785780636352211e146102a15780636817c76c146102de57806370a082311461030957806395d89b411461034657610114565b806318160ddd116100e757806318160ddd146101e757806320e409b4146102125780632173bd7b1461022e57806323b872dd146102385780633ccfd60b1461026157610114565b806301ffc9a71461011957806306fdde0314610156578063081812fc14610181578063095ea7b3146101be575b600080fd5b34801561012557600080fd5b50610140600480360381019061013b91906121d0565b61047a565b60405161014d9190612218565b60405180910390f35b34801561016257600080fd5b5061016b61055c565b60405161017891906122c3565b60405180910390f35b34801561018d57600080fd5b506101a860048036038101906101a3919061231b565b6105ee565b6040516101b59190612389565b60405180910390f35b3480156101ca57600080fd5b506101e560048036038101906101e091906123d0565b61060a565b005b3480156101f357600080fd5b506101fc610620565b604051610209919061241f565b60405180910390f35b61022c6004803603810190610227919061231b565b610626565b005b6102366106ef565b005b34801561024457600080fd5b5061025f600480360381019061025a919061243a565b610793565b005b34801561026d57600080fd5b50610276610895565b005b34801561028457600080fd5b5061029f600480360381019061029a919061243a565b610974565b005b3480156102ad57600080fd5b506102c860048036038101906102c3919061231b565b610994565b6040516102d59190612389565b60405180910390f35b3480156102ea57600080fd5b506102f36109a6565b604051610300919061241f565b60405180910390f35b34801561031557600080fd5b50610330600480360381019061032b919061248d565b6109ac565b60405161033d919061241f565b60405180910390f35b34801561035257600080fd5b5061035b610a66565b60405161036891906122c3565b60405180910390f35b34801561037d57600080fd5b50610398600480360381019061039391906124e6565b610af8565b005b3480156103a657600080fd5b506103c160048036038101906103bc919061231b565b610b0e565b6040516103ce91906122c3565b60405180910390f35b3480156103e357600080fd5b506103fe60048036038101906103f9919061265b565b610c33565b005b34801561040c57600080fd5b506104276004803603810190610422919061231b565b610c50565b60405161043491906122c3565b60405180910390f35b34801561044957600080fd5b50610464600480360381019061045f91906126de565b610d8e565b6040516104719190612218565b60405180910390f35b60007f80ac58cd000000000000000000000000000000000000000000000000000000007bffffffffffffffffffffffffffffffffffffffffffffffffffffffff1916827bffffffffffffffffffffffffffffffffffffffffffffffffffffffff1916148061054557507f5b5e139f000000000000000000000000000000000000000000000000000000007bffffffffffffffffffffffffffffffffffffffffffffffffffffffff1916827bffffffffffffffffffffffffffffffffffffffffffffffffffffffff1916145b80610555575061055482610e22565b5b9050919050565b60606000805461056b9061274d565b80601f01602080910402602001604051908101604052809291908181526020018280546105979061274d565b80156105e45780601f106105b9576101008083540402835291602001916105e4565b820191906000526020600020905b8154815290600101906020018083116105c757829003601f168201915b5050505050905090565b60006105f982610e8c565b5061060382610f14565b9050919050565b61061c8282610617610f51565b610f59565b5050565b60075481565b8060085461063491906127ad565b341015610676576040517f08c379a000000000000000000000000000000000000000000000000000000000815260040161066d9061283b565b60405180910390fd5b60005b818110156106eb5760006001600754610692919061285b565b905061069d81610b0e565b6009600083815260200190815260200160002090816106bc9190612a3b565b506106c73382610f6b565b6007600081546106d690612b0d565b91905081905550508080600101915050610679565b5050565b600854341015610734576040517f08c379a000000000000000000000000000000000000000000000000000000000815260040161072b9061283b565b60405180910390fd5b60006001600754610745919061285b565b905061075081610b0e565b60096000838152602001908152602001600020908161076f9190612a3b565b5061077a3382610f6b565b60076000815461078990612b0d565b9190508190555050565b600073ffffffffffffffffffffffffffffffffffffffff168273ffffffffffffffffffffffffffffffffffffffff16036108055760006040517f64a0ae920000000000000000000000000000000000000000000000000000000081526004016107fc9190612389565b60405180910390fd5b60006108198383610814610f51565b611064565b90508373ffffffffffffffffffffffffffffffffffffffff168173ffffffffffffffffffffffffffffffffffffffff161461088f578382826040517f64283d7b00000000000000000000000000000000000000000000000000000000815260040161088693929190612b55565b60405180910390fd5b50505050565b600660009054906101000a900473ffffffffffffffffffffffffffffffffffffffff1673ffffffffffffffffffffffffffffffffffffffff163373ffffffffffffffffffffffffffffffffffffffff1614610925576040517f08c379a000000000000000000000000000000000000000000000000000000000815260040161091c90612bd8565b60405180910390fd5b60004790503373ffffffffffffffffffffffffffffffffffffffff166108fc829081150290604051600060405180830381858888f19350505050158015610970573d6000803e3d6000fd5b5050565b61098f83838360405180602001604052806000815250610c33565b505050565b600061099f82610e8c565b9050919050565b60085481565b60008073ffffffffffffffffffffffffffffffffffffffff168273ffffffffffffffffffffffffffffffffffffffff1603610a1f5760006040517f89c62b64000000000000000000000000000000000000000000000000000000008152600401610a169190612389565b60405180910390fd5b600360008373ffffffffffffffffffffffffffffffffffffffff1673ffffffffffffffffffffffffffffffffffffffff168152602001908152602001600020549050919050565b606060018054610a759061274d565b80601f0160208091040260200160405190810160405280929190818152602001828054610aa19061274d565b8015610aee5780601f10610ac357610100808354040283529160200191610aee565b820191906000526020600020905b815481529060010190602001808311610ad157829003601f168201915b5050505050905090565b610b0a610b03610f51565b838361127e565b5050565b60606000610b1b836113ed565b9050600081600460058110610b3357610b32612bf8565b5b602002015182600060058110610b4c57610b4b612bf8565b5b602002015183600260058110610b6557610b64612bf8565b5b602002015184600060058110610b7e57610b7d612bf8565b5b602002015185600260058110610b9757610b96612bf8565b5b602002015186600160058110610bb057610baf612bf8565b5b602002015187600360058110610bc957610bc8612bf8565b5b602002015188600160058110610be257610be1612bf8565b5b602002015189600360058110610bfb57610bfa612bf8565b5b6020020151604051602001610c1899989796959493929190613123565b60405160208183030381529060405290508092505050919050565b610c3e848484610793565b610c4a84848484611834565b50505050565b6060600073ffffffffffffffffffffffffffffffffffffffff16610c73836119eb565b73ffffffffffffffffffffffffffffffffffffffff1603610c9357600080fd5b610d68610c9f83611a28565b610d43600960008681526020019081526020016000208054610cc09061274d565b80601f0160208091040260200160405190810160405280929190818152602001828054610cec9061274d565b8015610d395780601f10610d0e57610100808354040283529160200191610d39565b820191906000526020600020905b815481529060010190602001808311610d1c57829003601f168201915b5050505050611bb0565b604051602001610d54929190613344565b604051602081830303815290604052611bb0565b604051602001610d7891906133d5565b6040516020818303038152906040529050919050565b6000600560008473ffffffffffffffffffffffffffffffffffffffff1673ffffffffffffffffffffffffffffffffffffffff16815260200190815260200160002060008373ffffffffffffffffffffffffffffffffffffffff1673ffffffffffffffffffffffffffffffffffffffff16815260200190815260200160002060009054906101000a900460ff16905092915050565b60007f01ffc9a7000000000000000000000000000000000000000000000000000000007bffffffffffffffffffffffffffffffffffffffffffffffffffffffff1916827bffffffffffffffffffffffffffffffffffffffffffffffffffffffff1916149050919050565b600080610e98836119eb565b9050600073ffffffffffffffffffffffffffffffffffffffff168173ffffffffffffffffffffffffffffffffffffffff1603610f0b57826040517f7e273289000000000000000000000000000000000000000000000000000000008152600401610f02919061241f565b60405180910390fd5b80915050919050565b60006004600083815260200190815260200160002060009054906101000a900473ffffffffffffffffffffffffffffffffffffffff169050919050565b600033905090565b610f668383836001611d22565b505050565b600073ffffffffffffffffffffffffffffffffffffffff168273ffffffffffffffffffffffffffffffffffffffff1603610fdd5760006040517f64a0ae92000000000000000000000000000000000000000000000000000000008152600401610fd49190612389565b60405180910390fd5b6000610feb83836000611064565b9050600073ffffffffffffffffffffffffffffffffffffffff168173ffffffffffffffffffffffffffffffffffffffff161461105f5760006040517f73c6ac6e0000000000000000000000000000000000000000000000000000000081526004016110569190612389565b60405180910390fd5b505050565b600080611070846119eb565b9050600073ffffffffffffffffffffffffffffffffffffffff168373ffffffffffffffffffffffffffffffffffffffff16146110b2576110b1818486611ee7565b5b600073ffffffffffffffffffffffffffffffffffffffff168173ffffffffffffffffffffffffffffffffffffffff1614611143576110f4600085600080611d22565b6001600360008373ffffffffffffffffffffffffffffffffffffffff1673ffffffffffffffffffffffffffffffffffffffff168152602001908152602001600020600082825403925050819055505b600073ffffffffffffffffffffffffffffffffffffffff168573ffffffffffffffffffffffffffffffffffffffff16146111c6576001600360008773ffffffffffffffffffffffffffffffffffffffff1673ffffffffffffffffffffffffffffffffffffffff168152602001908152602001600020600082825401925050819055505b846002600086815260200190815260200160002060006101000a81548173ffffffffffffffffffffffffffffffffffffffff021916908373ffffffffffffffffffffffffffffffffffffffff160217905550838573ffffffffffffffffffffffffffffffffffffffff168273ffffffffffffffffffffffffffffffffffffffff167fddf252ad1be2c89b69c2b068fc378daa952ba7f163c4a11628f55a4df523b3ef60405160405180910390a4809150509392505050565b600073ffffffffffffffffffffffffffffffffffffffff168273ffffffffffffffffffffffffffffffffffffffff16036112ef57816040517f5b08ba180000000000000000000000000000000000000000000000000000000081526004016112e69190612389565b60405180910390fd5b80600560008573ffffffffffffffffffffffffffffffffffffffff1673ffffffffffffffffffffffffffffffffffffffff16815260200190815260200160002060008473ffffffffffffffffffffffffffffffffffffffff1673ffffffffffffffffffffffffffffffffffffffff16815260200190815260200160002060006101000a81548160ff0219169083151502179055508173ffffffffffffffffffffffffffffffffffffffff168373ffffffffffffffffffffffffffffffffffffffff167f17307eab39ab6107e8899845ad3d59bd9653f200f220920489ca2b5937696c31836040516113e09190612218565b60405180910390a3505050565b6113f561211b565b600061140083611fab565b905060008160006005811061141857611417612bf8565b5b6020020151905060008260016005811061143557611434612bf8565b5b6020020151905060008360026005811061145257611451612bf8565b5b6020020151905060008460036005811061146f5761146e612bf8565b5b6020020151905060008560046005811061148c5761148b612bf8565b5b602002015190506000600a86600481106114a9576114a8612bf8565b5b60020201600280602002604051908101604052809291906000905b828210156115675783820180546114da9061274d565b80601f01602080910402602001604051908101604052809291908181526020018280546115069061274d565b80156115535780601f1061152857610100808354040283529160200191611553565b820191906000526020600020905b81548152906001019060200180831161153657829003601f168201915b5050505050815260200190600101906114c4565b5050505090506000600a866004811061158357611582612bf8565b5b60020201600280602002604051908101604052809291906000905b828210156116415783820180546115b49061274d565b80601f01602080910402602001604051908101604052809291908181526020018280546115e09061274d565b801561162d5780601f106116025761010080835404028352916020019161162d565b820191906000526020600020905b81548152906001019060200180831161161057829003601f168201915b50505050508152602001906001019061159e565b50505050905060006001851461166f578260006002811061166557611664612bf8565b5b6020020151611689565b8260016002811061168357611682612bf8565b5b60200201515b90506000600186146116b357836001600281106116a9576116a8612bf8565b5b60200201516116cd565b836000600281106116c7576116c6612bf8565b5b60200201515b90506000600186146116f757836000600281106116ed576116ec612bf8565b5b6020020151611711565b8360016002811061170b5761170a612bf8565b5b60200201515b905060006001871461173b578460016002811061173157611730612bf8565b5b6020020151611755565b8460006002811061174f5761174e612bf8565b5b60200201515b9050600060128a6004811061176d5761176c612bf8565b5b0180546117799061274d565b80601f01602080910402602001604051908101604052809291908181526020018280546117a59061274d565b80156117f25780601f106117c7576101008083540402835291602001916117f2565b820191906000526020600020905b8154815290600101906020018083116117d557829003601f168201915b505050505090506040518060a00160405280868152602001858152602001848152602001838152602001828152509d5050505050505050505050505050919050565b60008373ffffffffffffffffffffffffffffffffffffffff163b11156119e5578273ffffffffffffffffffffffffffffffffffffffff1663150b7a02611878610f51565b8685856040518563ffffffff1660e01b815260040161189a949392919061344c565b6020604051808303816000875af19250505080156118d657506040513d601f19601f820116820180604052508101906118d391906134ad565b60015b61195a573d8060008114611906576040519150601f19603f3d011682016040523d82523d6000602084013e61190b565b606091505b50600081510361195257836040517f64a0ae920000000000000000000000000000000000000000000000000000000081526004016119499190612389565b60405180910390fd5b805181602001fd5b63150b7a0260e01b7bffffffffffffffffffffffffffffffffffffffffffffffffffffffff1916817bffffffffffffffffffffffffffffffffffffffffffffffffffffffff1916146119e357836040517f64a0ae920000000000000000000000000000000000000000000000000000000081526004016119da9190612389565b60405180910390fd5b505b50505050565b60006002600083815260200190815260200160002060009054906101000a900473ffffffffffffffffffffffffffffffffffffffff169050919050565b606060008203611a6f576040518060400160405280600181526020017f30000000000000000000000000000000000000000000000000000000000000008152509050611bab565b600082905060005b60008214611aa1578080611a8a90612b0d565b915050600a82611a9a9190613509565b9150611a77565b60008167ffffffffffffffff811115611abd57611abc612530565b5b6040519080825280601f01601f191660200182016040528015611aef5781602001600182028036833780820191505090505b50905060008290505b60008614611ba357600181611b0d919061353a565b90506000600a8088611b1f9190613509565b611b2991906127ad565b87611b34919061353a565b6030611b40919061357b565b905060008160f81b905080848481518110611b5e57611b5d612bf8565b5b60200101907effffffffffffffffffffffffffffffffffffffffffffffffffffffffffffff1916908160001a905350600a88611b9a9190613509565b97505050611af8565b819450505050505b919050565b60606000825103611bd257604051806020016040528060008152509050611d1d565b60006040518060600160405280604081526020016136c26040913990506000600360028551611c01919061285b565b611c0b9190613509565b6004611c1791906127ad565b67ffffffffffffffff811115611c3057611c2f612530565b5b6040519080825280601f01601f191660200182016040528015611c625781602001600182028036833780820191505090505b50905060018201602082018586518701602081018051600082525b82841015611cd8576003840193508351603f8160121c168701518653600186019550603f81600c1c168701518653600186019550603f8160061c168701518653600186019550603f8116870151865360018601955050611c7d565b80825260038a510660018114611cf55760028114611d0857611d10565b603d6001870353603d6002870353611d10565b603d60018703535b5050505050505080925050505b919050565b8080611d5b5750600073ffffffffffffffffffffffffffffffffffffffff168273ffffffffffffffffffffffffffffffffffffffff1614155b15611e8f576000611d6b84610e8c565b9050600073ffffffffffffffffffffffffffffffffffffffff168373ffffffffffffffffffffffffffffffffffffffff1614158015611dd657508273ffffffffffffffffffffffffffffffffffffffff168173ffffffffffffffffffffffffffffffffffffffff1614155b8015611de95750611de78184610d8e565b155b15611e2b57826040517fa9fbf51f000000000000000000000000000000000000000000000000000000008152600401611e229190612389565b60405180910390fd5b8115611e8d57838573ffffffffffffffffffffffffffffffffffffffff168273ffffffffffffffffffffffffffffffffffffffff167f8c5be1e5ebec7d5bd14f71427d1e84f3dd0314c0f7b2291e5b200ac8c7c3b92560405160405180910390a45b505b836004600085815260200190815260200160002060006101000a81548173ffffffffffffffffffffffffffffffffffffffff021916908373ffffffffffffffffffffffffffffffffffffffff16021790555050505050565b611ef283838361205a565b611fa657600073ffffffffffffffffffffffffffffffffffffffff168373ffffffffffffffffffffffffffffffffffffffff1603611f6757806040517f7e273289000000000000000000000000000000000000000000000000000000008152600401611f5e919061241f565b60405180910390fd5b81816040517f177e802f000000000000000000000000000000000000000000000000000000008152600401611f9d9291906135b0565b60405180910390fd5b505050565b611fb3612142565b611fbb612142565b600080600090505b600581101561204f5742338683604051602001611fe39493929190613642565b6040516020818303038152906040528051906020012060001c915060038110612018576002826120139190613690565b612026565b6004826120259190613690565b5b83826005811061203957612038612bf8565b5b6020020181815250508080600101915050611fc3565b508192505050919050565b60008073ffffffffffffffffffffffffffffffffffffffff168373ffffffffffffffffffffffffffffffffffffffff161415801561211257508273ffffffffffffffffffffffffffffffffffffffff168473ffffffffffffffffffffffffffffffffffffffff1614806120d357506120d28484610d8e565b5b8061211157508273ffffffffffffffffffffffffffffffffffffffff166120f983610f14565b73ffffffffffffffffffffffffffffffffffffffff16145b5b90509392505050565b6040518060a001604052806005905b606081526020019060019003908161212a5790505090565b6040518060a00160405280600590602082028036833780820191505090505090565b6000604051905090565b600080fd5b600080fd5b60007fffffffff0000000000000000000000000000000000000000000000000000000082169050919050565b6121ad81612178565b81146121b857600080fd5b50565b6000813590506121ca816121a4565b92915050565b6000602082840312156121e6576121e561216e565b5b60006121f4848285016121bb565b91505092915050565b60008115159050919050565b612212816121fd565b82525050565b600060208201905061222d6000830184612209565b92915050565b600081519050919050565b600082825260208201905092915050565b60005b8381101561226d578082015181840152602081019050612252565b60008484015250505050565b6000601f19601f8301169050919050565b600061229582612233565b61229f818561223e565b93506122af81856020860161224f565b6122b881612279565b840191505092915050565b600060208201905081810360008301526122dd818461228a565b905092915050565b6000819050919050565b6122f8816122e5565b811461230357600080fd5b50565b600081359050612315816122ef565b92915050565b6000602082840312156123315761233061216e565b5b600061233f84828501612306565b91505092915050565b600073ffffffffffffffffffffffffffffffffffffffff82169050919050565b600061237382612348565b9050919050565b61238381612368565b82525050565b600060208201905061239e600083018461237a565b92915050565b6123ad81612368565b81146123b857600080fd5b50565b6000813590506123ca816123a4565b92915050565b600080604083850312156123e7576123e661216e565b5b60006123f5858286016123bb565b925050602061240685828601612306565b9150509250929050565b612419816122e5565b82525050565b60006020820190506124346000830184612410565b92915050565b6000806000606084860312156124535761245261216e565b5b6000612461868287016123bb565b9350506020612472868287016123bb565b925050604061248386828701612306565b9150509250925092565b6000602082840312156124a3576124a261216e565b5b60006124b1848285016123bb565b91505092915050565b6124c3816121fd565b81146124ce57600080fd5b50565b6000813590506124e0816124ba565b92915050565b600080604083850312156124fd576124fc61216e565b5b600061250b858286016123bb565b925050602061251c858286016124d1565b9150509250929050565b600080fd5b600080fd5b7f4e487b7100000000000000000000000000000000000000000000000000000000600052604160045260246000fd5b61256882612279565b810181811067ffffffffffffffff8211171561258757612586612530565b5b80604052505050565b600061259a612164565b90506125a6828261255f565b919050565b600067ffffffffffffffff8211156125c6576125c5612530565b5b6125cf82612279565b9050602081019050919050565b82818337600083830152505050565b60006125fe6125f9846125ab565b612590565b90508281526020810184848401111561261a5761261961252b565b5b6126258482856125dc565b509392505050565b600082601f83011261264257612641612526565b5b81356126528482602086016125eb565b91505092915050565b600080600080608085870312156126755761267461216e565b5b6000612683878288016123bb565b9450506020612694878288016123bb565b93505060406126a587828801612306565b925050606085013567ffffffffffffffff8111156126c6576126c5612173565b5b6126d28782880161262d565b91505092959194509250565b600080604083850312156126f5576126f461216e565b5b6000612703858286016123bb565b9250506020612714858286016123bb565b9150509250929050565b7f4e487b7100000000000000000000000000000000000000000000000000000000600052602260045260246000fd5b6000600282049050600182168061276557607f821691505b6020821081036127785761277761271e565b5b50919050565b7f4e487b7100000000000000000000000000000000000000000000000000000000600052601160045260246000fd5b60006127b8826122e5565b91506127c3836122e5565b92508282026127d1816122e5565b915082820484148315176127e8576127e761277e565b5b5092915050565b7f4e6f7420656e6f756768204554482073656e7400000000000000000000000000600082015250565b600061282560138361223e565b9150612830826127ef565b602082019050919050565b6000602082019050818103600083015261285481612818565b9050919050565b6000612866826122e5565b9150612871836122e5565b92508282019050808211156128895761288861277e565b5b92915050565b60008190508160005260206000209050919050565b60006020601f8301049050919050565b600082821b905092915050565b6000600883026128f17fffffffffffffffffffffffffffffffffffffffffffffffffffffffffffffffff826128b4565b6128fb86836128b4565b95508019841693508086168417925050509392505050565b6000819050919050565b600061293861293361292e846122e5565b612913565b6122e5565b9050919050565b6000819050919050565b6129528361291d565b61296661295e8261293f565b8484546128c1565b825550505050565b600090565b61297b61296e565b612986818484612949565b505050565b5b818110156129aa5761299f600082612973565b60018101905061298c565b5050565b601f8211156129ef576129c08161288f565b6129c9846128a4565b810160208510156129d8578190505b6129ec6129e4856128a4565b83018261298b565b50505b505050565b600082821c905092915050565b6000612a12600019846008026129f4565b1980831691505092915050565b6000612a2b8383612a01565b9150826002028217905092915050565b612a4482612233565b67ffffffffffffffff811115612a5d57612a5c612530565b5b612a67825461274d565b612a728282856129ae565b600060209050601f831160018114612aa55760008415612a93578287015190505b612a9d8582612a1f565b865550612b05565b601f198416612ab38661288f565b60005b82811015612adb57848901518255600182019150602085019450602081019050612ab6565b86831015612af85784890151612af4601f891682612a01565b8355505b6001600288020188555050505b505050505050565b6000612b18826122e5565b91507fffffffffffffffffffffffffffffffffffffffffffffffffffffffffffffffff8203612b4a57612b4961277e565b5b600182019050919050565b6000606082019050612b6a600083018661237a565b612b776020830185612410565b612b84604083018461237a565b949350505050565b7f6f6e6c79206f776e657200000000000000000000000000000000000000000000600082015250565b6000612bc2600a8361223e565b9150612bcd82612b8c565b602082019050919050565b60006020820190508181036000830152612bf181612bb5565b9050919050565b7f4e487b7100000000000000000000000000000000000000000000000000000000600052603260045260246000fd5b600081905092915050565b7f3c3f786d6c2076657273696f6e3d22312e302220656e636f64696e673d22555460008201527f462d38223f3e3c7376672077696474683d2237323022206865696768743d223760208201527f3230222076657273696f6e3d22312e31222076696577426f783d22302030203360408201527f3630203336302220786d6c6e733d22687474703a2f2f7777772e77332e6f726760608201527f2f323030302f737667223e3c673e3c726563742077696474683d22313030252260808201527f206865696768743d2231303025222066696c6c3d22000000000000000000000060a082015250565b6000612d2660b583612c27565b9150612d3182612c32565b60b582019050919050565b6000612d4782612233565b612d518185612c27565b9350612d6181856020860161224f565b80840191505092915050565b7f222f3e3c636972636c652063783d223137322e35222063793d2239372e35222060008201527f723d2235322e35222066696c6c3d220000000000000000000000000000000000602082015250565b6000612dc9602f83612c27565b9150612dd482612d6d565b602f82019050919050565b7f222f3e3c636972636c652063783d223137322e35222063793d223236322e352260008201527f20723d2235322e35222066696c6c3d2200000000000000000000000000000000602082015250565b6000612e3b603083612c27565b9150612e4682612ddf565b603082019050919050565b7f222f3e3c7265637420783d223132302220793d2239372e35222077696474683d60008201527f2231303522206865696768743d2238322e35222066696c6c3d22000000000000602082015250565b6000612ead603a83612c27565b9150612eb882612e51565b603a82019050919050565b7f222f3e3c7265637420783d223132302220793d22313830222077696474683d2260008201527f31303522206865696768743d2238322e35222066696c6c3d2200000000000000602082015250565b6000612f1f603983612c27565b9150612f2a82612ec3565b603982019050919050565b7f222f3e3c636972636c652063783d223136382e3735222063793d2239332e373560008201527f2220723d2234382e3735222066696c6c3d220000000000000000000000000000602082015250565b6000612f91603283612c27565b9150612f9c82612f35565b603282019050919050565b7f222f3e3c636972636c652063783d223136382e3735222063793d223236362e3260008201527f352220723d2234382e3735222066696c6c3d2200000000000000000000000000602082015250565b6000613003603383612c27565b915061300e82612fa7565b603382019050919050565b7f222f3e3c7265637420783d223132302220793d2239372e35222077696474683d60008201527f2239372e3522206865696768743d2238322e35222066696c6c3d220000000000602082015250565b6000613075603b83612c27565b915061308082613019565b603b82019050919050565b7f222f3e3c7265637420783d223132302220793d22313830222077696474683d2260008201527f39372e3522206865696768743d2238322e35222066696c6c3d22000000000000602082015250565b60006130e7603a83612c27565b91506130f28261308b565b603a82019050919050565b7f222f3e3c2f673e3c2f7376673e00000000000000000000000000000000000000815250565b600061312e82612d19565b915061313a828c612d3c565b915061314582612dbc565b9150613151828b612d3c565b915061315c82612e2e565b9150613168828a612d3c565b915061317382612ea0565b915061317f8289612d3c565b915061318a82612f12565b91506131968288612d3c565b91506131a182612f84565b91506131ad8287612d3c565b91506131b882612ff6565b91506131c48286612d3c565b91506131cf82613068565b91506131db8285612d3c565b91506131e6826130da565b91506131f28284612d3c565b91506131fd826130fd565b600d820191508190509a9950505050505050505050565b7f7b226e616d65223a202250696c6c732023000000000000000000000000000000600082015250565b600061324a601183612c27565b915061325582613214565b601182019050919050565b7f222c20226465736372697074696f6e223a202243686561702050696c6c73222c60008201527f202261747472696275746573223a2022222c2022696d616765223a226461746160208201527f3a696d6167652f7376672b786d6c3b6261736536342c00000000000000000000604082015250565b60006132e2605683612c27565b91506132ed82613260565b605682019050919050565b7f227d000000000000000000000000000000000000000000000000000000000000600082015250565b600061332e600283612c27565b9150613339826132f8565b600282019050919050565b600061334f8261323d565b915061335b8285612d3c565b9150613366826132d5565b91506133728284612d3c565b915061337d82613321565b91508190509392505050565b7f646174613a6170706c69636174696f6e2f6a736f6e3b6261736536342c000000600082015250565b60006133bf601d83612c27565b91506133ca82613389565b601d82019050919050565b60006133e0826133b2565b91506133ec8284612d3c565b915081905092915050565b600081519050919050565b600082825260208201905092915050565b600061341e826133f7565b6134288185613402565b935061343881856020860161224f565b61344181612279565b840191505092915050565b6000608082019050613461600083018761237a565b61346e602083018661237a565b61347b6040830185612410565b818103606083015261348d8184613413565b905095945050505050565b6000815190506134a7816121a4565b92915050565b6000602082840312156134c3576134c261216e565b5b60006134d184828501613498565b91505092915050565b7f4e487b7100000000000000000000000000000000000000000000000000000000600052601260045260246000fd5b6000613514826122e5565b915061351f836122e5565b92508261352f5761352e6134da565b5b828204905092915050565b6000613545826122e5565b9150613550836122e5565b92508282039050818111156135685761356761277e565b5b92915050565b600060ff82169050919050565b60006135868261356e565b91506135918361356e565b9250828201905060ff8111156135aa576135a961277e565b5b92915050565b60006040820190506135c5600083018561237a565b6135d26020830184612410565b9392505050565b6000819050919050565b6135f46135ef826122e5565b6135d9565b82525050565b60008160601b9050919050565b6000613612826135fa565b9050919050565b600061362482613607565b9050919050565b61363c61363782612368565b613619565b82525050565b600061364e82876135e3565b60208201915061365e828661362b565b60148201915061366e82856135e3565b60208201915061367e82846135e3565b60208201915081905095945050505050565b600061369b826122e5565b91506136a6836122e5565b9250826136b6576136b56134da565b5b82820690509291505056fe4142434445464748494a4b4c4d4e4f505152535455565758595a6162636465666768696a6b6c6d6e6f707172737475767778797a303132333435363738392b2fa264697066735822122076ca909713cb908f6151344fd27f4c83711c4b34a4708e5188eb4fb091f9043864736f6c63430008180033",
  "linkReferences": {},
  "deployedLinkReferences": {}
}